{
  "contractName": "ZUSDImplementation",
  "abi": [
    {
      "anonymous": false,
      "inputs": [
        {
          "indexed": true,
          "internalType": "address",
          "name": "owner",
          "type": "address"
        },
        {
          "indexed": true,
          "internalType": "address",
          "name": "spender",
          "type": "address"
        },
        {
          "indexed": false,
          "internalType": "uint256",
          "name": "value",
          "type": "uint256"
        }
      ],
      "name": "Approval",
      "type": "event"
    },
    {
      "anonymous": false,
      "inputs": [
        {
          "indexed": true,
          "internalType": "address",
          "name": "from",
          "type": "address"
        },
        {
          "indexed": false,
          "internalType": "uint256",
          "name": "value",
          "type": "uint256"
        }
      ],
      "name": "Burn",
      "type": "event"
    },
    {
      "anonymous": false,
      "inputs": [
        {
          "indexed": true,
          "internalType": "address",
          "name": "oldComplianceRole",
          "type": "address"
        },
        {
          "indexed": true,
          "internalType": "address",
          "name": "newComplianceRole",
          "type": "address"
        }
      ],
      "name": "ComplianceRoleSet",
      "type": "event"
    },
    {
      "anonymous": false,
      "inputs": [
        {
          "indexed": true,
          "internalType": "address",
          "name": "addr",
          "type": "address"
        }
      ],
      "name": "FreezeAddress",
      "type": "event"
    },
    {
      "anonymous": false,
      "inputs": [
        {
          "indexed": true,
          "internalType": "address",
          "name": "oldIssuer",
          "type": "address"
        },
        {
          "indexed": true,
          "internalType": "address",
          "name": "newIssuer",
          "type": "address"
        }
      ],
      "name": "IssuerSet",
      "type": "event"
    },
    {
      "anonymous": false,
      "inputs": [
        {
          "indexed": true,
          "internalType": "address",
          "name": "to",
          "type": "address"
        },
        {
          "indexed": false,
          "internalType": "uint256",
          "name": "value",
          "type": "uint256"
        }
      ],
      "name": "Mint",
      "type": "event"
    },
    {
      "anonymous": false,
      "inputs": [
        {
          "indexed": true,
          "internalType": "address",
          "name": "oldProposedOwner",
          "type": "address"
        }
      ],
      "name": "OwnershipTransferDisregarded",
      "type": "event"
    },
    {
      "anonymous": false,
      "inputs": [
        {
          "indexed": true,
          "internalType": "address",
          "name": "currentOwner",
          "type": "address"
        },
        {
          "indexed": true,
          "internalType": "address",
          "name": "proposedOwner",
          "type": "address"
        }
      ],
      "name": "OwnershipTransferProposed",
      "type": "event"
    },
    {
      "anonymous": false,
      "inputs": [
        {
          "indexed": true,
          "internalType": "address",
          "name": "oldOwner",
          "type": "address"
        },
        {
          "indexed": true,
          "internalType": "address",
          "name": "newOwner",
          "type": "address"
        }
      ],
      "name": "OwnershipTransferred",
      "type": "event"
    },
    {
      "anonymous": false,
      "inputs": [],
      "name": "Pause",
      "type": "event"
    },
    {
      "anonymous": false,
      "inputs": [
        {
          "indexed": true,
          "internalType": "address",
          "name": "from",
          "type": "address"
        },
        {
          "indexed": true,
          "internalType": "address",
          "name": "to",
          "type": "address"
        },
        {
          "indexed": false,
          "internalType": "uint256",
          "name": "value",
          "type": "uint256"
        }
      ],
      "name": "Transfer",
      "type": "event"
    },
    {
      "anonymous": false,
      "inputs": [
        {
          "indexed": true,
          "internalType": "address",
          "name": "addr",
          "type": "address"
        }
      ],
      "name": "UnfreezeAddress",
      "type": "event"
    },
    {
      "anonymous": false,
      "inputs": [],
      "name": "Unpause",
      "type": "event"
    },
    {
      "anonymous": false,
      "inputs": [
        {
          "indexed": true,
          "internalType": "address",
          "name": "addr",
          "type": "address"
        }
      ],
      "name": "WipeFrozenAddress",
      "type": "event"
    },
    {
      "inputs": [],
      "name": "complianceRole",
      "outputs": [
        {
          "internalType": "address",
          "name": "",
          "type": "address"
        }
      ],
      "stateMutability": "view",
      "type": "function"
    },
    {
      "inputs": [],
      "name": "decimals",
      "outputs": [
        {
          "internalType": "uint8",
          "name": "",
          "type": "uint8"
        }
      ],
      "stateMutability": "view",
      "type": "function"
    },
    {
      "inputs": [],
      "name": "issuer",
      "outputs": [
        {
          "internalType": "address",
          "name": "",
          "type": "address"
        }
      ],
      "stateMutability": "view",
      "type": "function"
    },
    {
      "inputs": [],
      "name": "name",
      "outputs": [
        {
          "internalType": "string",
          "name": "",
          "type": "string"
        }
      ],
      "stateMutability": "view",
      "type": "function"
    },
    {
      "inputs": [],
      "name": "owner",
      "outputs": [
        {
          "internalType": "address",
          "name": "",
          "type": "address"
        }
      ],
      "stateMutability": "view",
      "type": "function"
    },
    {
      "inputs": [],
      "name": "paused",
      "outputs": [
        {
          "internalType": "bool",
          "name": "",
          "type": "bool"
        }
      ],
      "stateMutability": "view",
      "type": "function"
    },
    {
      "inputs": [],
      "name": "proposedOwner",
      "outputs": [
        {
          "internalType": "address",
          "name": "",
          "type": "address"
        }
      ],
      "stateMutability": "view",
      "type": "function"
    },
    {
      "inputs": [],
      "name": "symbol",
      "outputs": [
        {
          "internalType": "string",
          "name": "",
          "type": "string"
        }
      ],
      "stateMutability": "view",
      "type": "function"
    },
    {
      "inputs": [],
      "name": "totalSupply",
      "outputs": [
        {
          "internalType": "uint256",
          "name": "",
          "type": "uint256"
        }
      ],
      "stateMutability": "view",
      "type": "function"
    },
    {
      "inputs": [],
      "name": "initialize",
      "outputs": [],
      "stateMutability": "nonpayable",
      "type": "function"
    },
    {
      "inputs": [
        {
          "internalType": "address",
          "name": "addr",
          "type": "address"
        }
      ],
      "name": "balanceOf",
      "outputs": [
        {
          "internalType": "uint256",
          "name": "",
          "type": "uint256"
        }
      ],
      "stateMutability": "view",
      "type": "function"
    },
    {
      "inputs": [
        {
          "internalType": "address",
          "name": "to",
          "type": "address"
        },
        {
          "internalType": "uint256",
          "name": "value",
          "type": "uint256"
        }
      ],
      "name": "transfer",
      "outputs": [
        {
          "internalType": "bool",
          "name": "",
          "type": "bool"
        }
      ],
      "stateMutability": "nonpayable",
      "type": "function"
    },
    {
      "inputs": [
        {
          "internalType": "address",
          "name": "from",
          "type": "address"
        },
        {
          "internalType": "address",
          "name": "to",
          "type": "address"
        },
        {
          "internalType": "uint256",
          "name": "value",
          "type": "uint256"
        }
      ],
      "name": "transferFrom",
      "outputs": [
        {
          "internalType": "bool",
          "name": "",
          "type": "bool"
        }
      ],
      "stateMutability": "nonpayable",
      "type": "function"
    },
    {
      "inputs": [
        {
          "internalType": "address",
          "name": "spender",
          "type": "address"
        },
        {
          "internalType": "uint256",
          "name": "value",
          "type": "uint256"
        }
      ],
      "name": "approve",
      "outputs": [
        {
          "internalType": "bool",
          "name": "",
          "type": "bool"
        }
      ],
      "stateMutability": "nonpayable",
      "type": "function"
    },
    {
      "inputs": [
        {
          "internalType": "address",
          "name": "spender",
          "type": "address"
        },
        {
          "internalType": "uint256",
          "name": "addedValue",
          "type": "uint256"
        }
      ],
      "name": "increaseAllowance",
      "outputs": [
        {
          "internalType": "bool",
          "name": "",
          "type": "bool"
        }
      ],
      "stateMutability": "nonpayable",
      "type": "function"
    },
    {
      "inputs": [
        {
          "internalType": "address",
          "name": "spender",
          "type": "address"
        },
        {
          "internalType": "uint256",
          "name": "subtractedValue",
          "type": "uint256"
        }
      ],
      "name": "decreaseAllowance",
      "outputs": [
        {
          "internalType": "bool",
          "name": "",
          "type": "bool"
        }
      ],
      "stateMutability": "nonpayable",
      "type": "function"
    },
    {
      "inputs": [
        {
          "internalType": "address",
          "name": "owner",
          "type": "address"
        },
        {
          "internalType": "address",
          "name": "spender",
          "type": "address"
        }
      ],
      "name": "allowance",
      "outputs": [
        {
          "internalType": "uint256",
          "name": "",
          "type": "uint256"
        }
      ],
      "stateMutability": "view",
      "type": "function"
    },
    {
      "inputs": [
        {
          "internalType": "address",
          "name": "newProposedOwner",
          "type": "address"
        }
      ],
      "name": "proposeOwner",
      "outputs": [],
      "stateMutability": "nonpayable",
      "type": "function"
    },
    {
      "inputs": [],
      "name": "disregardProposeOwner",
      "outputs": [],
      "stateMutability": "nonpayable",
      "type": "function"
    },
    {
      "inputs": [],
      "name": "claimOwnership",
      "outputs": [],
      "stateMutability": "nonpayable",
      "type": "function"
    },
    {
      "inputs": [],
      "name": "pause",
      "outputs": [],
      "stateMutability": "nonpayable",
      "type": "function"
    },
    {
      "inputs": [],
      "name": "unpause",
      "outputs": [],
      "stateMutability": "nonpayable",
      "type": "function"
    },
    {
      "inputs": [
        {
          "internalType": "address",
          "name": "addr",
          "type": "address"
        }
      ],
      "name": "frozen",
      "outputs": [
        {
          "internalType": "bool",
          "name": "",
          "type": "bool"
        }
      ],
      "stateMutability": "view",
      "type": "function"
    },
    {
      "inputs": [
        {
          "internalType": "address",
          "name": "newComplianceRole",
          "type": "address"
        }
      ],
      "name": "setComplianceRole",
      "outputs": [],
      "stateMutability": "nonpayable",
      "type": "function"
    },
    {
      "inputs": [
        {
          "internalType": "address",
          "name": "addr",
          "type": "address"
        }
      ],
      "name": "freeze",
      "outputs": [],
      "stateMutability": "nonpayable",
      "type": "function"
    },
    {
      "inputs": [
        {
          "internalType": "address",
          "name": "addr",
          "type": "address"
        }
      ],
      "name": "unfreeze",
      "outputs": [],
      "stateMutability": "nonpayable",
      "type": "function"
    },
    {
      "inputs": [
        {
          "internalType": "address",
          "name": "addr",
          "type": "address"
        }
      ],
      "name": "wipeFrozenAddress",
      "outputs": [],
      "stateMutability": "nonpayable",
      "type": "function"
    },
    {
      "inputs": [
        {
          "internalType": "address",
          "name": "newIssuer",
          "type": "address"
        }
      ],
      "name": "setIssuer",
      "outputs": [],
      "stateMutability": "nonpayable",
      "type": "function"
    },
    {
      "inputs": [
        {
          "internalType": "uint256",
          "name": "value",
          "type": "uint256"
        }
      ],
      "name": "mint",
      "outputs": [
        {
          "internalType": "bool",
          "name": "success",
          "type": "bool"
        }
      ],
      "stateMutability": "nonpayable",
      "type": "function"
    },
    {
      "inputs": [
        {
          "internalType": "address",
          "name": "to",
          "type": "address"
        },
        {
          "internalType": "uint256",
          "name": "value",
          "type": "uint256"
        }
      ],
      "name": "mintTo",
      "outputs": [
        {
          "internalType": "bool",
          "name": "",
          "type": "bool"
        }
      ],
      "stateMutability": "nonpayable",
      "type": "function"
    },
    {
      "inputs": [
        {
          "internalType": "uint256",
          "name": "value",
          "type": "uint256"
        }
      ],
      "name": "burn",
      "outputs": [
        {
          "internalType": "bool",
          "name": "",
          "type": "bool"
        }
      ],
      "stateMutability": "nonpayable",
      "type": "function"
    },
    {
      "inputs": [
        {
          "internalType": "address",
          "name": "from",
          "type": "address"
        },
        {
          "internalType": "uint256",
          "name": "value",
          "type": "uint256"
        }
      ],
      "name": "burnFrom",
      "outputs": [
        {
          "internalType": "bool",
          "name": "",
          "type": "bool"
        }
      ],
      "stateMutability": "nonpayable",
      "type": "function"
    }
  ],
  "bytecode": "0x608060405234801561001057600080fd5b50611d9e806100206000396000f3fe608060405234801561001057600080fd5b50600436106101f05760003560e01c806370a082311161010f578063a0712d68116100a2578063d051665011610071578063d051665014610588578063d153b60c146105ae578063dd62ed3e146105b6578063e2f72f03146105e4576101f0565b8063a0712d68146104ed578063a457c2d71461050a578063a9059cbb14610536578063b5ed298a14610562576101f0565b80638456cb59116100de5780638456cb59146104af5780638d1fdf2f146104b75780638da5cb5b146104dd57806395d89b41146104e5576101f0565b806370a082311461042f57806379cc6790146104555780638129fc1c1461048157806382ac5a0d14610489576101f0565b80633f4ba83a116101875780634e71e0c8116101565780634e71e0c8146103f1578063519dd153146103f957806355cc4e57146104015780635c975abb14610427576101f0565b80633f4ba83a1461037a57806342966c6814610382578063449a52f81461039f57806345c8b1a6146103cb576101f0565b80631d143848116101c35780631d143848146102d657806323b872dd146102fa578063313ce56714610330578063395093511461034e576101f0565b806303acb448146101f557806306fdde03146101ff578063095ea7b31461027c57806318160ddd146102bc575b600080fd5b6101fd61060a565b005b610207610711565b6040805160208082528351818301528351919283929083019185019080838360005b83811015610241578181015183820152602001610229565b50505050905090810190601f16801561026e5780820380516001836020036101000a031916815260200191505b509250505060405180910390f35b6102a86004803603604081101561029257600080fd5b506001600160a01b038135169060200135610737565b604080519115158252519081900360200190f35b6102c461079d565b60408051918252519081900360200190f35b6102de6107a3565b604080516001600160a01b039092168252519081900360200190f35b6102a86004803603606081101561031057600080fd5b506001600160a01b038135811691602081013590911690604001356107b2565b610338610871565b6040805160ff9092168252519081900360200190f35b6102a86004803603604081101561036457600080fd5b506001600160a01b038135169060200135610876565b6101fd6108b7565b6102a86004803603602081101561039857600080fd5b503561098b565b6102a8600480360360408110156103b557600080fd5b506001600160a01b0381351690602001356109f3565b6101fd600480360360208110156103e157600080fd5b50356001600160a01b0316610a4c565b6101fd610b56565b6102de610c09565b6101fd6004803603602081101561041757600080fd5b50356001600160a01b0316610c18565b6102a8610d04565b6102c46004803603602081101561044557600080fd5b50356001600160a01b0316610d14565b6102a86004803603604081101561046b57600080fd5b506001600160a01b038135169060200135610d2f565b6101fd610e15565b6101fd6004803603602081101561049f57600080fd5b50356001600160a01b0316610ef9565b6101fd610fc9565b6101fd600480360360208110156104cd57600080fd5b50356001600160a01b03166110a2565b6102de6111a9565b6102076111b8565b6102a86004803603602081101561050357600080fd5b50356111d8565b6102a86004803603604081101561052057600080fd5b506001600160a01b03813516906020013561123d565b6102a86004803603604081101561054c57600080fd5b506001600160a01b038135169060200135611279565b6101fd6004803603602081101561057857600080fd5b50356001600160a01b03166112d6565b6102a86004803603602081101561059e57600080fd5b50356001600160a01b031661141b565b6102de611439565b6102c4600480360360408110156105cc57600080fd5b506001600160a01b0381358116916020013516611448565b6101fd600480360360208110156105fa57600080fd5b50356001600160a01b0316611473565b6005546001600160a01b031633148061062d57506004546001600160a01b031633145b61067e576040805162461bcd60e51b815260206004820152601b60248201527f6f6e6c792070726f706f7365644f776e6572206f72206f776e65720000000000604482015290519081900360640190fd5b6005546001600160a01b03166106c55760405162461bcd60e51b815260040180806020018281038252603b815260200180611d2e603b913960400191505060405180910390fd5b600580546001600160a01b031981169091556040516001600160a01b039091169081907f24f4590b0077912a4db89e7430de7986175c27bede1b47ee039e3b421c2e798e90600090a250565b6040518060400160405280600a815260200169169e5d185c98481554d160b21b81525081565b600554600090600160a01b900460ff1615610789576040805162461bcd60e51b815260206004820152600d60248201526c1dda195b939bdd14185d5cd959609a1b604482015290519081900360640190fd5b610794338484611587565b50600192915050565b60025481565b6008546001600160a01b031681565b600554600090600160a01b900460ff1615610804576040805162461bcd60e51b815260206004820152600d60248201526c1dda195b939bdd14185d5cd959609a1b604482015290519081900360640190fd5b6001600160a01b0384166000908152600360209081526040808320338452909152902054610838908363ffffffff6116b216565b6001600160a01b03851660009081526003602090815260408083203384529091529020556108678484846116fb565b5060019392505050565b600681565b3360008181526003602090815260408083206001600160a01b038716845290915281205490916107949185906108b2908663ffffffff61189416565b611587565b6004546001600160a01b03163314610902576040805162461bcd60e51b815260206004820152600960248201526837b7363ca7bbb732b960b91b604482015290519081900360640190fd5b600554600160a01b900460ff16610953576040805162461bcd60e51b815260206004820152601060248201526f185b1c9958591e481d5b9c185d5cd95960821b604482015290519081900360640190fd5b6005805460ff60a01b191690556040517f7805862f689e2f13df9f062ff482ad3ad112aca9e0847911ed832e158c525b3390600090a1565b3360009081526007602052604081205460ff16156109e1576040805162461bcd60e51b815260206004820152600e60248201526d30b2323932b9b990333937bd32b760911b604482015290519081900360640190fd5b6109eb33836118ee565b506001919050565b6008546000906001600160a01b03163314610a42576040805162461bcd60e51b815260206004820152600a60248201526937b7363ca4b9b9bab2b960b11b604482015290519081900360640190fd5b61079483836119c4565b6006546001600160a01b03163314610aa0576040805162461bcd60e51b81526020600482015260126024820152716f6e6c79436f6d706c69616e6365526f6c6560701b604482015290519081900360640190fd5b6001600160a01b03811660009081526007602052604090205460ff16610b0d576040805162461bcd60e51b815260206004820152601860248201527f6164647265737320616c726561647920756e66726f7a656e0000000000000000604482015290519081900360640190fd5b6001600160a01b038116600081815260076020526040808220805460ff19169055517f150465b020dfc06a59269da94ed66db9b65a516cf4fdd5f583b0f12752339bbe9190a250565b6005546001600160a01b03163314610ba9576040805162461bcd60e51b815260206004820152601160248201527037b7363ca83937b837b9b2b227bbb732b960791b604482015290519081900360640190fd5b60048054600580546001600160a01b03198084166001600160a01b038381169190911795869055911690915560405191811692169082907f8be0079c531659141344cd1fd0a4f28419497f9722a3daafe3b4186f6b6457e090600090a350565b6006546001600160a01b031681565b6004546001600160a01b03163314610c63576040805162461bcd60e51b815260206004820152600960248201526837b7363ca7bbb732b960b91b604482015290519081900360640190fd5b6001600160a01b038116610ca85760405162461bcd60e51b8152600401808060200182810382526021815260200180611cb66021913960400191505060405180910390fd5b6008546040516001600160a01b038084169216907ff7189b85d7899f5a32d733e6584c4f1dcdff0274f09d969d186c1797673ede1190600090a3600880546001600160a01b0319166001600160a01b0392909216919091179055565b600554600160a01b900460ff1681565b6001600160a01b031660009081526001602052604090205490565b6001600160a01b03821660009081526007602052604081205460ff16158015610d6857503360009081526007602052604090205460ff16155b610daa576040805162461bcd60e51b815260206004820152600e60248201526d30b2323932b9b990333937bd32b760911b604482015290519081900360640190fd5b610db483836118ee565b6001600160a01b0383166000908152600360209081526040808320338452909152902054610de8908363ffffffff6116b216565b6001600160a01b038416600090815260036020908152604080832033845290915290205550600192915050565b600054610100900460ff1680610e2e5750610e2e611bef565b80610e3c575060005460ff16155b610e775760405162461bcd60e51b815260040180806020018281038252602e815260200180611cd7602e913960400191505060405180910390fd5b600054610100900460ff16158015610ea2576000805460ff1961ff0019909116610100171660011790555b60048054336001600160a01b031991821681179092556005805460068054841690556000600255600880549093169093179091556001600160a81b031990911690558015610ef6576000805461ff00191690555b50565b6006546001600160a01b0316331480610f1c57506004546001600160a01b031633145b610f6d576040805162461bcd60e51b815260206004820152601c60248201527f6f6e6c7920636f6d706c69616e6365526f6c65206f72204f776e657200000000604482015290519081900360640190fd5b6006546040516001600160a01b038084169216907f31b58ff3d01f61690b2faab8df1864d6eee3f4d17434dbcdb436136d8deb2d2f90600090a3600680546001600160a01b0319166001600160a01b0392909216919091179055565b6004546001600160a01b03163314611014576040805162461bcd60e51b815260206004820152600960248201526837b7363ca7bbb732b960b91b604482015290519081900360640190fd5b600554600160a01b900460ff1615611064576040805162461bcd60e51b815260206004820152600e60248201526d185b1c9958591e481c185d5cd95960921b604482015290519081900360640190fd5b6005805460ff60a01b1916600160a01b1790556040517f6985a02210a168e66602d3235cb6db0e70f92b3ba4d376a33c0f3d9434bff62590600090a1565b6006546001600160a01b031633146110f6576040805162461bcd60e51b81526020600482015260126024820152716f6e6c79436f6d706c69616e6365526f6c6560701b604482015290519081900360640190fd5b6001600160a01b03811660009081526007602052604090205460ff161561115d576040805162461bcd60e51b815260206004820152601660248201527530b2323932b9b99030b63932b0b23c90333937bd32b760511b604482015290519081900360640190fd5b6001600160a01b038116600081815260076020526040808220805460ff19166001179055517f1aa660498c83ea285bc55e4cfc00afcaa7120798db87b74f3c0d7c6e001bc3929190a250565b6004546001600160a01b031681565b60405180604001604052806004815260200163169554d160e21b81525081565b6008546000906001600160a01b03163314611227576040805162461bcd60e51b815260206004820152600a60248201526937b7363ca4b9b9bab2b960b11b604482015290519081900360640190fd5b6008546109eb906001600160a01b0316836119c4565b3360008181526003602090815260408083206001600160a01b038716845290915281205490916107949185906108b2908663ffffffff6116b216565b600554600090600160a01b900460ff16156112cb576040805162461bcd60e51b815260206004820152600d60248201526c1dda195b939bdd14185d5cd959609a1b604482015290519081900360640190fd5b6107943384846116fb565b6004546001600160a01b03163314611321576040805162461bcd60e51b815260206004820152600960248201526837b7363ca7bbb732b960b91b604482015290519081900360640190fd5b6001600160a01b0381166113665760405162461bcd60e51b8152600401808060200182810382526029815260200180611c8d6029913960400191505060405180910390fd5b336001600160a01b03821614156113c4576040805162461bcd60e51b815260206004820152601760248201527f63616c6c657220616c7265616479206973206f776e6572000000000000000000604482015290519081900360640190fd5b600580546001600160a01b0319166001600160a01b038381169190911791829055600454604051928216929116907ff4e75b79500ab730f8a026ed3cba6d55331bcb64c9e9f60c548e371356e5e3c090600090a350565b6001600160a01b031660009081526007602052604090205460ff1690565b6005546001600160a01b031681565b6001600160a01b03918216600090815260036020908152604080832093909416825291909152205490565b6006546001600160a01b031633146114c7576040805162461bcd60e51b81526020600482015260126024820152716f6e6c79436f6d706c69616e6365526f6c6560701b604482015290519081900360640190fd5b6001600160a01b03811660009081526007602052604090205460ff1661152c576040805162461bcd60e51b815260206004820152601560248201527430b2323932b9b99034b9903737ba10333937bd32b760591b604482015290519081900360640190fd5b6001600160a01b03811660009081526001602052604090205461154f82826118ee565b6040516001600160a01b038316907f71e13dfaf69fe3a65acef6b6eff085b0d60c7b3ebf229bda2e2fd3e8c5d1839690600090a25050565b6001600160a01b03831660009081526007602052604090205460ff161580156115c957506001600160a01b03821660009081526007602052604090205460ff16155b61160b576040805162461bcd60e51b815260206004820152600e60248201526d30b2323932b9b990333937bd32b760911b604482015290519081900360640190fd5b6001600160a01b0382166116505760405162461bcd60e51b8152600401808060200182810382526029815260200180611d056029913960400191505060405180910390fd5b6001600160a01b03808416600081815260036020908152604080832094871680845294825291829020859055815185815291517f8c5be1e5ebec7d5bd14f71427d1e84f3dd0314c0f7b2291e5b200ac8c7c3b9259281900390910190a3505050565b60006116f483836040518060400160405280601e81526020017f536166654d6174683a207375627472616374696f6e206f766572666c6f770000815250611bf5565b9392505050565b6001600160a01b038216611756576040805162461bcd60e51b815260206004820152601f60248201527f63616e6e6f74207472616e7366657220746f2061646472657373207a65726f00604482015290519081900360640190fd5b6001600160a01b03831660009081526007602052604090205460ff1615801561179857506001600160a01b03821660009081526007602052604090205460ff16155b6117da576040805162461bcd60e51b815260206004820152600e60248201526d30b2323932b9b990333937bd32b760911b604482015290519081900360640190fd5b6001600160a01b038316600090815260016020526040902054611803908263ffffffff6116b216565b6001600160a01b038085166000908152600160205260408082209390935590841681522054611838908263ffffffff61189416565b6001600160a01b0380841660008181526001602090815260409182902094909455805185815290519193928716927fddf252ad1be2c89b69c2b068fc378daa952ba7f163c4a11628f55a4df523b3ef92918290030190a3505050565b6000828201838110156116f4576040805162461bcd60e51b815260206004820152601b60248201527f536166654d6174683a206164646974696f6e206f766572666c6f770000000000604482015290519081900360640190fd5b600254611901908263ffffffff6116b216565b6002556001600160a01b03821660009081526001602052604090205461192d908263ffffffff6116b216565b6001600160a01b038316600081815260016020908152604091829020939093558051848152905191927fcc16f5dbb4873280815c1ee09dbd06736cffcc184412cf7a71a0fdb75d397ca592918290030190a26040805182815290516000916001600160a01b038516917fddf252ad1be2c89b69c2b068fc378daa952ba7f163c4a11628f55a4df523b3ef9181900360200190a35050565b6008546001600160a01b03163314611a10576040805162461bcd60e51b815260206004820152600a60248201526937b7363ca4b9b9bab2b960b11b604482015290519081900360640190fd5b600554600160a01b900460ff1615611a5f576040805162461bcd60e51b815260206004820152600d60248201526c1dda195b939bdd14185d5cd959609a1b604482015290519081900360640190fd5b6001600160a01b038216611aba576040805162461bcd60e51b815260206004820152601b60248201527f63616e6e6f74206d696e7420746f2061646472657373207a65726f0000000000604482015290519081900360640190fd5b6001600160a01b03821660009081526007602052604090205460ff1615611b19576040805162461bcd60e51b815260206004820152600e60248201526d30b2323932b9b990333937bd32b760911b604482015290519081900360640190fd5b600254611b2c908263ffffffff61189416565b6002556001600160a01b038216600090815260016020526040902054611b58908263ffffffff61189416565b6001600160a01b038316600081815260016020908152604091829020939093558051848152905191927f0f6798a560793a54c3bcfe86a93cde1e73087d944c0ea20544137d412139688592918290030190a26040805182815290516001600160a01b038416916000917fddf252ad1be2c89b69c2b068fc378daa952ba7f163c4a11628f55a4df523b3ef9181900360200190a35050565b303b1590565b60008184841115611c845760405162461bcd60e51b81526004018080602001828103825283818151815260200191508051906020019080838360005b83811015611c49578181015183820152602001611c31565b50505050905090810190601f168015611c765780820380516001836020036101000a031916815260200191505b509250505060405180910390fd5b50505090039056fe63616e6e6f74207472616e73666572206f776e65727368697020746f2061646472657373207a65726f63616e6e6f74207365742069737375657220746f2061646472657373207a65726f496e697469616c697a61626c653a20636f6e747261637420697320616c726561647920696e697469616c697a656463616e6e6f7420617070726f766520616c6c6f77616e636520666f72207a65726f206164647265737363616e206f6e6c792064697372656761726420612070726f706f736564206f776e65722074686174207761732070726576696f75736c7920736574a264697066735822122073bbac5fa94828a0b8010571ff1221ead7adad41420e11e748794cceae268a9f64736f6c63430006000033",
  "source": "pragma solidity 0.6.0;\n\nimport \"@openzeppelin/contracts/math/SafeMath.sol\";\nimport \"@openzeppelin/contracts/token/ERC20/IERC20.sol\";\nimport \"@openzeppelin/contracts/proxy/Initializable.sol\";\n\n/**\n * @title ZUSDImplementation\n * @dev This contract is a Pausable ERC20 token with issuance\n * controlled by a central Issuer. By implementing ZUSDImplementation\n * this contract also includes external methods for setting\n * a new implementation contract for the Proxy.\n * NOTE: The storage defined here will actually be held in the Proxy\n * contract and all calls to this contract should be made through\n * the proxy, including admin actions done as owner or issuer.\n * Any call to transfer against this contract should fail\n * since the contract is paused and there are no balances.\n */\ncontract ZUSDImplementation is IERC20, Initializable {\n    /**\n     * MATH\n     */\n\n    using SafeMath for uint256;\n\n    /**\n     * DATA\n     * NOTE: Do NOT reorder any declared variables and ONLY append variables.\n     * The proxy relies on existing variables to remain in the same address space.\n     */\n\n    // ERC20 CONSTANT DETAILS\n    string public constant name = \"Zytara USD\";\n    string public constant symbol = \"ZUSD\";\n    uint8 public constant decimals = 6;\n\n    // ERC20 DATA\n    mapping(address => uint256) internal _balances;\n    uint256 public override totalSupply;\n    mapping(address => mapping(address => uint256)) internal _allowances;\n\n    // OWNER DATA\n    address public owner;\n    address public proposedOwner;\n\n    // PAUSABILITY DATA\n    bool public paused;\n\n    // COMPLIANCE DATA\n    address public complianceRole;\n    mapping(address => bool) internal _frozen;\n\n    // ISSUER DATA\n    address public issuer;\n\n    /**\n     * EVENTS\n     */\n\n    // ERC20 EVENTS\n    event Transfer(address indexed from, address indexed to, uint256 value);\n    event Approval(\n        address indexed owner,\n        address indexed spender,\n        uint256 value\n    );\n\n    // OWNABLE EVENTS\n    event OwnershipTransferProposed(\n        address indexed currentOwner,\n        address indexed proposedOwner\n    );\n    event OwnershipTransferDisregarded(address indexed oldProposedOwner);\n    event OwnershipTransferred(\n        address indexed oldOwner,\n        address indexed newOwner\n    );\n\n    // PAUSABLE EVENTS\n    event Pause();\n    event Unpause();\n\n    // COMPLIANCE EVENTS\n    event FreezeAddress(address indexed addr);\n    event UnfreezeAddress(address indexed addr);\n    event WipeFrozenAddress(address indexed addr);\n    event ComplianceRoleSet(\n        address indexed oldComplianceRole,\n        address indexed newComplianceRole\n    );\n\n    // ISSUER EVENTS\n    event Mint(address indexed to, uint256 value);\n    event Burn(address indexed from, uint256 value);\n    event IssuerSet(address indexed oldIssuer, address indexed newIssuer);\n\n    /**\n     * FUNCTIONALITY\n     */\n\n    // INITIALIZATION FUNCTIONALITY\n\n    /**\n     * @dev sets 0 initial tokens, the owner, and the issuer.\n     * this serves as the constructor for the proxy but compiles to the\n     * memory model of the Implementation contract.\n     */\n    function initialize() public initializer {\n        owner = msg.sender;\n        proposedOwner = address(0);\n        complianceRole = address(0);\n        totalSupply = 0;\n        issuer = msg.sender;\n        paused = false;\n    }\n\n    // ERC20 FUNCTIONALITY\n\n    /**\n     * @dev Gets the balance of the specified address.\n     * @param addr The address to query the the balance of.\n     * Returns a uint256 representing the amount owned by the passed address.\n     */\n    function balanceOf(address addr) external override view returns (uint256) {\n        return _balances[addr];\n    }\n\n    /**\n     * @dev Transfer token to a specified address from msg.sender\n     * Note: the use of Safemath ensures that value is nonnegative.\n     * @param to The address to transfer to.\n     * @param value The amount to be transferred.\n     */\n    function transfer(address to, uint256 value)\n        external\n        override\n        whenNotPaused\n        returns (bool)\n    {\n        _transfer(msg.sender, to, value);\n        return true;\n    }\n\n    /**\n     * @dev Transfer tokens from one address to another\n     * @param from address The address which you want to send tokens from\n     * @param to address The address which you want to transfer to\n     * @param value uint256 the amount of tokens to be transferred\n     */\n    function transferFrom(\n        address from,\n        address to,\n        uint256 value\n    ) external override whenNotPaused returns (bool) {\n        _allowances[from][msg.sender] = _allowances[from][msg.sender].sub(\n            value\n        );\n        _transfer(from, to, value);\n\n        return true;\n    }\n\n    /**\n     * @dev Approve the passed address to spend the specified amount of tokens on behalf of msg.sender.\n     * Beware that changing an allowance with this method brings the risk that someone may use both the old\n     * and the new allowance by unfortunate transaction ordering. One possible solution to mitigate this\n     * race condition is to first reduce the spender's allowance to 0 and set the desired value afterwards:\n     * https://github.com/ethereum/EIPs/issues/20#issuecomment-263524729\n     * @param spender The address which will spend the funds.\n     * @param value The amount of tokens to be spent.\n     */\n    function approve(address spender, uint256 value)\n        external\n        override\n        whenNotPaused\n        returns (bool)\n    {\n        _approve(msg.sender, spender, value);\n\n        return true;\n    }\n\n    /**\n     * @dev Atomically increases the allowance granted to `spender` by the caller.\n     * @param spender The address that will spend the tokens.\n     * @param addedValue The increase in the number of tokens that can be spent.\n     *\n     * This mitigates the problem described in:\n     * https://github.com/ethereum/EIPs/issues/20#issuecomment-263524729\n     */\n    function increaseAllowance(address spender, uint256 addedValue)\n        external\n        returns (bool)\n    {\n        _approve(\n            msg.sender,\n            spender,\n            _allowances[msg.sender][spender].add(addedValue)\n        );\n        return true;\n    }\n\n    /**\n     * @dev Atomically decreases the allowance granted to `spender` by the caller.\n     * @param spender The address that will spend the tokens.\n     * @param subtractedValue The decrease in the number of tokens that can be spent.\n     *\n     * This mitigates the problem described in:\n     * https://github.com/ethereum/EIPs/issues/20#issuecomment-263524729\n     */\n    function decreaseAllowance(address spender, uint256 subtractedValue)\n        external\n        returns (bool)\n    {\n        _approve(\n            msg.sender,\n            spender,\n            _allowances[msg.sender][spender].sub(subtractedValue)\n        );\n        return true;\n    }\n\n    /**\n     * @dev Approve an address to spend another addresses' tokens.\n     * @param owner The address that owns the tokens.\n     * @param spender The address that will spend the tokens.\n     * @param value The number of tokens that can be spent.\n     */\n    function _approve(\n        address owner,\n        address spender,\n        uint256 value\n    ) internal {\n        require(!_frozen[owner] && !_frozen[spender], \"address frozen\");\n        require(\n            spender != address(0),\n            \"cannot approve allowance for zero address\"\n        );\n\n        _allowances[owner][spender] = value;\n        emit Approval(owner, spender, value);\n    }\n\n    /**\n     * @dev Function to check the amount of tokens that an owner allowed to a spender.\n     * @param owner address The address which owns the funds.\n     * @param spender address The address which will spend the funds.\n     * Returns a uint256 specifying the amount of tokens still available for the spender.\n     */\n    function allowance(address owner, address spender)\n        external\n        override\n        view\n        returns (uint256)\n    {\n        return _allowances[owner][spender];\n    }\n\n    function _transfer(\n        address from,\n        address to,\n        uint256 value\n    ) internal {\n        require(to != address(0), \"cannot transfer to address zero\");\n        require(!_frozen[from] && !_frozen[to], \"address frozen\");\n\n        _balances[from] = _balances[from].sub(value);\n        _balances[to] = _balances[to].add(value);\n        emit Transfer(from, to, value);\n    }\n\n    // OWNER FUNCTIONALITY\n\n    /**\n     * @dev Throws if called by any account other than the owner.\n     */\n    modifier onlyOwner() {\n        require(msg.sender == owner, \"onlyOwner\");\n        _;\n    }\n\n    /**\n     * @dev Allows the current owner to begin transferring control of the contract to a proposedOwner\n     * @param newProposedOwner The address to transfer ownership to.\n     */\n    function proposeOwner(address newProposedOwner) external onlyOwner {\n        require(\n            newProposedOwner != address(0),\n            \"cannot transfer ownership to address zero\"\n        );\n        require(msg.sender != newProposedOwner, \"caller already is owner\");\n\n        proposedOwner = newProposedOwner;\n        emit OwnershipTransferProposed(owner, proposedOwner);\n    }\n\n    /**\n     * @dev Allows the current owner or proposed owner to cancel transferring control of the contract to a proposedOwner\n     */\n    function disregardProposeOwner() external {\n        require(\n            msg.sender == proposedOwner || msg.sender == owner,\n            \"only proposedOwner or owner\"\n        );\n        require(\n            proposedOwner != address(0),\n            \"can only disregard a proposed owner that was previously set\"\n        );\n\n        address oldProposedOwner = proposedOwner;\n        proposedOwner = address(0);\n        emit OwnershipTransferDisregarded(oldProposedOwner);\n    }\n\n    /**\n     * @dev Allows the proposed owner to complete transferring control of the contract to the proposedOwner.\n     */\n    function claimOwnership() external {\n        require(msg.sender == proposedOwner, \"onlyProposedOwner\");\n\n        address oldOwner = owner;\n        owner = proposedOwner;\n        proposedOwner = address(0);\n        emit OwnershipTransferred(oldOwner, owner);\n    }\n\n    // PAUSABILITY FUNCTIONALITY\n\n    /**\n     * @dev Modifier to make a function callable only when the contract is not paused.\n     */\n    modifier whenNotPaused() {\n        require(!paused, \"whenNotPaused\");\n        _;\n    }\n\n    /**\n     * @dev called by the owner to pause, triggers stopped state\n     */\n    function pause() external onlyOwner {\n        require(!paused, \"already paused\");\n\n        paused = true;\n        emit Pause();\n    }\n\n    /**\n     * @dev called by the owner to unpause, returns to normal state\n     */\n    function unpause() external onlyOwner {\n        require(paused, \"already unpaused\");\n\n        paused = false;\n        emit Unpause();\n    }\n\n    // COMPLIANCE FUNCTIONALITY\n\n    /**\n     * @dev Gets the frozen status of the specified address.\n     * @param addr The address to query the the status of.\n     * Returns a bool representing whether the address is frozen.\n     */\n    function frozen(address addr) external view returns (bool) {\n        return _frozen[addr];\n    }\n\n    /**\n     * @dev Sets a new compliance role address.\n     * @param newComplianceRole The new address allowed to freeze/unfreeze addresses and seize their tokens.\n     */\n    function setComplianceRole(address newComplianceRole) external {\n        require(\n            msg.sender == complianceRole || msg.sender == owner,\n            \"only complianceRole or Owner\"\n        );\n\n        emit ComplianceRoleSet(complianceRole, newComplianceRole);\n        complianceRole = newComplianceRole;\n    }\n\n    modifier onlyComplianceRole() {\n        require(msg.sender == complianceRole, \"onlyComplianceRole\");\n        _;\n    }\n\n    /**\n     * @dev Freezes an address balance from being transferred.\n     * @param addr The new address to freeze.\n     */\n    function freeze(address addr) external onlyComplianceRole {\n        require(!_frozen[addr], \"address already frozen\");\n\n        _frozen[addr] = true;\n        emit FreezeAddress(addr);\n    }\n\n    /**\n     * @dev Unfreezes an address balance allowing transfer.\n     * @param addr The new address to unfreeze.\n     */\n    function unfreeze(address addr) external onlyComplianceRole {\n        require(_frozen[addr], \"address already unfrozen\");\n\n        _frozen[addr] = false;\n        emit UnfreezeAddress(addr);\n    }\n\n    /**\n     * @dev Wipes the balance of a frozen address, burning the tokens\n     * and setting the approval to zero.\n     * @param addr The new frozen address to wipe.\n     */\n    function wipeFrozenAddress(address addr) external onlyComplianceRole {\n        require(_frozen[addr], \"address is not frozen\");\n\n        uint256 _balance = _balances[addr];\n        _burn(addr, _balance);\n        emit WipeFrozenAddress(addr);\n    }\n\n    // ISSUER FUNCTIONALITY\n\n    /**\n     * @dev Sets a new issuer address.\n     * @param newIssuer The address allowed to mint tokens to control supply.\n     */\n    function setIssuer(address newIssuer) external onlyOwner {\n        require(newIssuer != address(0), \"cannot set issuer to address zero\");\n        emit IssuerSet(issuer, newIssuer);\n        issuer = newIssuer;\n    }\n\n    modifier onlyIssuer() {\n        require(msg.sender == issuer, \"onlyIssuer\");\n        _;\n    }\n\n    /**\n     * @dev Increases the total supply by minting the specified number of tokens to the issuer account.\n     * @param value The number of tokens to add.\n     * Returns a boolean that indicates if the operation was successful.\n     */\n    function mint(uint256 value) external onlyIssuer returns (bool success) {\n        _mint(issuer, value);\n\n        return true;\n    }\n\n    /**\n     * @dev Increases the total supply by minting the specified number of tokens to the specified account.\n     * @param value The number of tokens to add.\n     * Returns a boolean that indicates if the operation was successful.\n     */\n    function mintTo(address to, uint256 value)\n        external\n        onlyIssuer\n        returns (bool)\n    {\n        _mint(to, value);\n\n        return true;\n    }\n\n    /**\n     * @dev Internal function that mints an amount of the token and assigns it to\n     * an account. This encapsulates the modification of _balances such that the\n     * proper events are emitted.\n     * @param to The account that will receive the created tokens.\n     * @param value The amount that will be created.\n     */\n    function _mint(address to, uint256 value)\n        internal\n        onlyIssuer\n        whenNotPaused\n    {\n        require(to != address(0), \"cannot mint to address zero\");\n        require(!_frozen[to], \"address frozen\");\n\n        totalSupply = totalSupply.add(value);\n        _balances[to] = _balances[to].add(value);\n        emit Mint(to, value);\n        emit Transfer(address(0), to, value);\n    }\n\n    /**\n     * @dev Decreases the total supply by burning the specified number of tokens.\n     * @param value The number of tokens to remove.\n     * Returns a boolean that indicates if the operation was successful.\n     */\n    function burn(uint256 value) external returns (bool) {\n        require(!_frozen[msg.sender], \"address frozen\");\n        _burn(msg.sender, value);\n\n        return true;\n    }\n\n    /**\n     * @dev Decreases the total supply by burning the specified number of tokens from the specified address.\n     * @param value The number of tokens to remove.\n     * Returns a boolean that indicates if the operation was successful.\n     */\n    function burnFrom(address from, uint256 value) external returns (bool) {\n        require(!_frozen[from] && !_frozen[msg.sender], \"address frozen\");\n        _burn(from, value);\n        _allowances[from][msg.sender] = _allowances[from][msg.sender].sub(\n            value\n        );\n\n        return true;\n    }\n\n    /**\n     * @dev Internal function that burns an amount of the token of a given\n     * account.\n     * @param addr The account whose tokens will be burnt.\n     * @param value The amount that will be burnt.\n     */\n    function _burn(address addr, uint256 value) internal {\n        totalSupply = totalSupply.sub(value);\n        _balances[addr] = _balances[addr].sub(value);\n        emit Burn(addr, value);\n        emit Transfer(addr, address(0), value);\n    }\n}\n",
  "sourcePath": "/Users/dazheng/workspace/token-contracts/zusd-ethereum/token/contracts/ZUSDImplementation.sol",
  "compiler": {
    "name": "solc",
    "version": "0.6.0+commit.26b70077.Emscripten.clang"
  },
  "schemaVersion": "3.3.3",
  "updatedAt": "2020-12-22T16:04:21.749Z",
  "devdoc": {
    "details": "This contract is a Pausable ERC20 token with issuance controlled by a central Issuer. By implementing ZUSDImplementation this contract also includes external methods for setting a new implementation contract for the Proxy. NOTE: The storage defined here will actually be held in the Proxy contract and all calls to this contract should be made through the proxy, including admin actions done as owner or issuer. Any call to transfer against this contract should fail since the contract is paused and there are no balances.",
    "methods": {
      "allowance(address,address)": {
        "details": "Function to check the amount of tokens that an owner allowed to a spender.",
        "params": {
          "owner": "address The address which owns the funds.",
          "spender": "address The address which will spend the funds. Returns a uint256 specifying the amount of tokens still available for the spender."
        }
      },
      "approve(address,uint256)": {
        "details": "Approve the passed address to spend the specified amount of tokens on behalf of msg.sender. Beware that changing an allowance with this method brings the risk that someone may use both the old and the new allowance by unfortunate transaction ordering. One possible solution to mitigate this race condition is to first reduce the spender's allowance to 0 and set the desired value afterwards: https://github.com/ethereum/EIPs/issues/20#issuecomment-263524729",
        "params": {
          "spender": "The address which will spend the funds.",
          "value": "The amount of tokens to be spent."
        }
      },
      "balanceOf(address)": {
        "details": "Gets the balance of the specified address.",
        "params": {
          "addr": "The address to query the the balance of. Returns a uint256 representing the amount owned by the passed address."
        }
      },
      "burn(uint256)": {
        "details": "Decreases the total supply by burning the specified number of tokens.",
        "params": {
          "value": "The number of tokens to remove. Returns a boolean that indicates if the operation was successful."
        }
      },
      "burnFrom(address,uint256)": {
        "details": "Decreases the total supply by burning the specified number of tokens from the specified address.",
        "params": {
          "value": "The number of tokens to remove. Returns a boolean that indicates if the operation was successful."
        }
      },
      "claimOwnership()": {
        "details": "Allows the proposed owner to complete transferring control of the contract to the proposedOwner."
      },
      "decreaseAllowance(address,uint256)": {
        "details": "Atomically decreases the allowance granted to `spender` by the caller.",
        "params": {
          "spender": "The address that will spend the tokens.",
          "subtractedValue": "The decrease in the number of tokens that can be spent.     * This mitigates the problem described in: https://github.com/ethereum/EIPs/issues/20#issuecomment-263524729"
        }
      },
      "disregardProposeOwner()": {
        "details": "Allows the current owner or proposed owner to cancel transferring control of the contract to a proposedOwner"
      },
      "freeze(address)": {
        "details": "Freezes an address balance from being transferred.",
        "params": {
          "addr": "The new address to freeze."
        }
      },
      "frozen(address)": {
        "details": "Gets the frozen status of the specified address.",
        "params": {
          "addr": "The address to query the the status of. Returns a bool representing whether the address is frozen."
        }
      },
      "increaseAllowance(address,uint256)": {
        "details": "Atomically increases the allowance granted to `spender` by the caller.",
        "params": {
          "addedValue": "The increase in the number of tokens that can be spent.     * This mitigates the problem described in: https://github.com/ethereum/EIPs/issues/20#issuecomment-263524729",
          "spender": "The address that will spend the tokens."
        }
      },
      "initialize()": {
        "details": "sets 0 initial tokens, the owner, and the issuer. this serves as the constructor for the proxy but compiles to the memory model of the Implementation contract."
      },
      "mint(uint256)": {
        "details": "Increases the total supply by minting the specified number of tokens to the issuer account.",
        "params": {
          "value": "The number of tokens to add. Returns a boolean that indicates if the operation was successful."
        }
      },
      "mintTo(address,uint256)": {
        "details": "Increases the total supply by minting the specified number of tokens to the specified account.",
        "params": {
          "value": "The number of tokens to add. Returns a boolean that indicates if the operation was successful."
        }
      },
      "pause()": {
        "details": "called by the owner to pause, triggers stopped state"
      },
      "proposeOwner(address)": {
        "details": "Allows the current owner to begin transferring control of the contract to a proposedOwner",
        "params": {
          "newProposedOwner": "The address to transfer ownership to."
        }
      },
      "setComplianceRole(address)": {
        "details": "Sets a new compliance role address.",
        "params": {
          "newComplianceRole": "The new address allowed to freeze/unfreeze addresses and seize their tokens."
        }
      },
      "setIssuer(address)": {
        "details": "Sets a new issuer address.",
        "params": {
          "newIssuer": "The address allowed to mint tokens to control supply."
        }
      },
      "transfer(address,uint256)": {
        "details": "Transfer token to a specified address from msg.sender Note: the use of Safemath ensures that value is nonnegative.",
        "params": {
          "to": "The address to transfer to.",
          "value": "The amount to be transferred."
        }
      },
      "transferFrom(address,address,uint256)": {
        "details": "Transfer tokens from one address to another",
        "params": {
          "from": "address The address which you want to send tokens from",
          "to": "address The address which you want to transfer to",
          "value": "uint256 the amount of tokens to be transferred"
        }
      },
      "unfreeze(address)": {
        "details": "Unfreezes an address balance allowing transfer.",
        "params": {
          "addr": "The new address to unfreeze."
        }
      },
      "unpause()": {
        "details": "called by the owner to unpause, returns to normal state"
      },
      "wipeFrozenAddress(address)": {
        "details": "Wipes the balance of a frozen address, burning the tokens and setting the approval to zero.",
        "params": {
          "addr": "The new frozen address to wipe."
        }
      }
    },
    "title": "ZUSDImplementation"
  },
  "userdoc": {
    "methods": {}
  }
}