{
  "contractName": "ZUSDMock",
  "abi": [
    {
      "anonymous": false,
      "inputs": [
        {
          "indexed": true,
          "internalType": "address",
          "name": "owner",
          "type": "address"
        },
        {
          "indexed": true,
          "internalType": "address",
          "name": "spender",
          "type": "address"
        },
        {
          "indexed": false,
          "internalType": "uint256",
          "name": "value",
          "type": "uint256"
        }
      ],
      "name": "Approval",
      "type": "event"
    },
    {
      "anonymous": false,
      "inputs": [
        {
          "indexed": true,
          "internalType": "address",
          "name": "from",
          "type": "address"
        },
        {
          "indexed": false,
          "internalType": "uint256",
          "name": "value",
          "type": "uint256"
        }
      ],
      "name": "Burn",
      "type": "event"
    },
    {
      "anonymous": false,
      "inputs": [
        {
          "indexed": true,
          "internalType": "address",
          "name": "oldComplianceRole",
          "type": "address"
        },
        {
          "indexed": true,
          "internalType": "address",
          "name": "newComplianceRole",
          "type": "address"
        }
      ],
      "name": "ComplianceRoleSet",
      "type": "event"
    },
    {
      "anonymous": false,
      "inputs": [
        {
          "indexed": true,
          "internalType": "address",
          "name": "addr",
          "type": "address"
        }
      ],
      "name": "FreezeAddress",
      "type": "event"
    },
    {
      "anonymous": false,
      "inputs": [
        {
          "indexed": true,
          "internalType": "address",
          "name": "oldIssuer",
          "type": "address"
        },
        {
          "indexed": true,
          "internalType": "address",
          "name": "newIssuer",
          "type": "address"
        }
      ],
      "name": "IssuerSet",
      "type": "event"
    },
    {
      "anonymous": false,
      "inputs": [
        {
          "indexed": true,
          "internalType": "address",
          "name": "to",
          "type": "address"
        },
        {
          "indexed": false,
          "internalType": "uint256",
          "name": "value",
          "type": "uint256"
        }
      ],
      "name": "Mint",
      "type": "event"
    },
    {
      "anonymous": false,
      "inputs": [
        {
          "indexed": true,
          "internalType": "address",
          "name": "oldProposedOwner",
          "type": "address"
        }
      ],
      "name": "OwnershipTransferDisregarded",
      "type": "event"
    },
    {
      "anonymous": false,
      "inputs": [
        {
          "indexed": true,
          "internalType": "address",
          "name": "currentOwner",
          "type": "address"
        },
        {
          "indexed": true,
          "internalType": "address",
          "name": "proposedOwner",
          "type": "address"
        }
      ],
      "name": "OwnershipTransferProposed",
      "type": "event"
    },
    {
      "anonymous": false,
      "inputs": [
        {
          "indexed": true,
          "internalType": "address",
          "name": "oldOwner",
          "type": "address"
        },
        {
          "indexed": true,
          "internalType": "address",
          "name": "newOwner",
          "type": "address"
        }
      ],
      "name": "OwnershipTransferred",
      "type": "event"
    },
    {
      "anonymous": false,
      "inputs": [],
      "name": "Pause",
      "type": "event"
    },
    {
      "anonymous": false,
      "inputs": [
        {
          "indexed": true,
          "internalType": "address",
          "name": "from",
          "type": "address"
        },
        {
          "indexed": true,
          "internalType": "address",
          "name": "to",
          "type": "address"
        },
        {
          "indexed": false,
          "internalType": "uint256",
          "name": "value",
          "type": "uint256"
        }
      ],
      "name": "Transfer",
      "type": "event"
    },
    {
      "anonymous": false,
      "inputs": [
        {
          "indexed": true,
          "internalType": "address",
          "name": "addr",
          "type": "address"
        }
      ],
      "name": "UnfreezeAddress",
      "type": "event"
    },
    {
      "anonymous": false,
      "inputs": [],
      "name": "Unpause",
      "type": "event"
    },
    {
      "anonymous": false,
      "inputs": [
        {
          "indexed": true,
          "internalType": "address",
          "name": "addr",
          "type": "address"
        }
      ],
      "name": "WipeFrozenAddress",
      "type": "event"
    },
    {
      "inputs": [
        {
          "internalType": "address",
          "name": "owner",
          "type": "address"
        },
        {
          "internalType": "address",
          "name": "spender",
          "type": "address"
        }
      ],
      "name": "allowance",
      "outputs": [
        {
          "internalType": "uint256",
          "name": "",
          "type": "uint256"
        }
      ],
      "stateMutability": "view",
      "type": "function"
    },
    {
      "inputs": [
        {
          "internalType": "address",
          "name": "spender",
          "type": "address"
        },
        {
          "internalType": "uint256",
          "name": "value",
          "type": "uint256"
        }
      ],
      "name": "approve",
      "outputs": [
        {
          "internalType": "bool",
          "name": "",
          "type": "bool"
        }
      ],
      "stateMutability": "nonpayable",
      "type": "function"
    },
    {
      "inputs": [
        {
          "internalType": "address",
          "name": "addr",
          "type": "address"
        }
      ],
      "name": "balanceOf",
      "outputs": [
        {
          "internalType": "uint256",
          "name": "",
          "type": "uint256"
        }
      ],
      "stateMutability": "view",
      "type": "function"
    },
    {
      "inputs": [
        {
          "internalType": "uint256",
          "name": "value",
          "type": "uint256"
        }
      ],
      "name": "burn",
      "outputs": [
        {
          "internalType": "bool",
          "name": "success",
          "type": "bool"
        }
      ],
      "stateMutability": "nonpayable",
      "type": "function"
    },
    {
      "inputs": [
        {
          "internalType": "address",
          "name": "from",
          "type": "address"
        },
        {
          "internalType": "uint256",
          "name": "value",
          "type": "uint256"
        }
      ],
      "name": "burnFrom",
      "outputs": [
        {
          "internalType": "bool",
          "name": "success",
          "type": "bool"
        }
      ],
      "stateMutability": "nonpayable",
      "type": "function"
    },
    {
      "inputs": [],
      "name": "claimOwnership",
      "outputs": [],
      "stateMutability": "nonpayable",
      "type": "function"
    },
    {
      "inputs": [],
      "name": "complianceRole",
      "outputs": [
        {
          "internalType": "address",
          "name": "",
          "type": "address"
        }
      ],
      "stateMutability": "view",
      "type": "function"
    },
    {
      "inputs": [],
      "name": "decimals",
      "outputs": [
        {
          "internalType": "uint8",
          "name": "",
          "type": "uint8"
        }
      ],
      "stateMutability": "pure",
      "type": "function"
    },
    {
      "inputs": [
        {
          "internalType": "address",
          "name": "spender",
          "type": "address"
        },
        {
          "internalType": "uint256",
          "name": "subtractedValue",
          "type": "uint256"
        }
      ],
      "name": "decreaseAllowance",
      "outputs": [
        {
          "internalType": "bool",
          "name": "",
          "type": "bool"
        }
      ],
      "stateMutability": "nonpayable",
      "type": "function"
    },
    {
      "inputs": [],
      "name": "disregardProposeOwner",
      "outputs": [],
      "stateMutability": "nonpayable",
      "type": "function"
    },
    {
      "inputs": [
        {
          "internalType": "address",
          "name": "addr",
          "type": "address"
        }
      ],
      "name": "freeze",
      "outputs": [],
      "stateMutability": "nonpayable",
      "type": "function"
    },
    {
      "inputs": [
        {
          "internalType": "address",
          "name": "addr",
          "type": "address"
        }
      ],
      "name": "frozen",
      "outputs": [
        {
          "internalType": "bool",
          "name": "",
          "type": "bool"
        }
      ],
      "stateMutability": "view",
      "type": "function"
    },
    {
      "inputs": [
        {
          "internalType": "address",
          "name": "spender",
          "type": "address"
        },
        {
          "internalType": "uint256",
          "name": "addedValue",
          "type": "uint256"
        }
      ],
      "name": "increaseAllowance",
      "outputs": [
        {
          "internalType": "bool",
          "name": "",
          "type": "bool"
        }
      ],
      "stateMutability": "nonpayable",
      "type": "function"
    },
    {
      "inputs": [],
      "name": "initialize",
      "outputs": [],
      "stateMutability": "nonpayable",
      "type": "function"
    },
    {
      "inputs": [],
      "name": "issuer",
      "outputs": [
        {
          "internalType": "address",
          "name": "",
          "type": "address"
        }
      ],
      "stateMutability": "view",
      "type": "function"
    },
    {
      "inputs": [
        {
          "internalType": "uint256",
          "name": "value",
          "type": "uint256"
        }
      ],
      "name": "mint",
      "outputs": [
        {
          "internalType": "bool",
          "name": "success",
          "type": "bool"
        }
      ],
      "stateMutability": "nonpayable",
      "type": "function"
    },
    {
      "inputs": [
        {
          "internalType": "address",
          "name": "to",
          "type": "address"
        },
        {
          "internalType": "uint256",
          "name": "value",
          "type": "uint256"
        }
      ],
      "name": "mintTo",
      "outputs": [
        {
          "internalType": "bool",
          "name": "success",
          "type": "bool"
        }
      ],
      "stateMutability": "nonpayable",
      "type": "function"
    },
    {
      "inputs": [],
      "name": "name",
      "outputs": [
        {
          "internalType": "string",
          "name": "",
          "type": "string"
        }
      ],
      "stateMutability": "pure",
      "type": "function"
    },
    {
      "inputs": [],
      "name": "owner",
      "outputs": [
        {
          "internalType": "address",
          "name": "",
          "type": "address"
        }
      ],
      "stateMutability": "view",
      "type": "function"
    },
    {
      "inputs": [],
      "name": "pause",
      "outputs": [],
      "stateMutability": "nonpayable",
      "type": "function"
    },
    {
      "inputs": [],
      "name": "paused",
      "outputs": [
        {
          "internalType": "bool",
          "name": "",
          "type": "bool"
        }
      ],
      "stateMutability": "view",
      "type": "function"
    },
    {
      "inputs": [
        {
          "internalType": "address",
          "name": "newProposedOwner",
          "type": "address"
        }
      ],
      "name": "proposeOwner",
      "outputs": [],
      "stateMutability": "nonpayable",
      "type": "function"
    },
    {
      "inputs": [],
      "name": "proposedOwner",
      "outputs": [
        {
          "internalType": "address",
          "name": "",
          "type": "address"
        }
      ],
      "stateMutability": "view",
      "type": "function"
    },
    {
      "inputs": [
        {
          "internalType": "address",
          "name": "newComplianceRole",
          "type": "address"
        }
      ],
      "name": "setComplianceRole",
      "outputs": [],
      "stateMutability": "nonpayable",
      "type": "function"
    },
    {
      "inputs": [
        {
          "internalType": "address",
          "name": "newIssuer",
          "type": "address"
        }
      ],
      "name": "setIssuer",
      "outputs": [],
      "stateMutability": "nonpayable",
      "type": "function"
    },
    {
      "inputs": [],
      "name": "symbol",
      "outputs": [
        {
          "internalType": "string",
          "name": "",
          "type": "string"
        }
      ],
      "stateMutability": "pure",
      "type": "function"
    },
    {
      "inputs": [],
      "name": "totalSupply",
      "outputs": [
        {
          "internalType": "uint256",
          "name": "",
          "type": "uint256"
        }
      ],
      "stateMutability": "view",
      "type": "function"
    },
    {
      "inputs": [
        {
          "internalType": "address",
          "name": "to",
          "type": "address"
        },
        {
          "internalType": "uint256",
          "name": "value",
          "type": "uint256"
        }
      ],
      "name": "transfer",
      "outputs": [
        {
          "internalType": "bool",
          "name": "",
          "type": "bool"
        }
      ],
      "stateMutability": "nonpayable",
      "type": "function"
    },
    {
      "inputs": [
        {
          "internalType": "address",
          "name": "from",
          "type": "address"
        },
        {
          "internalType": "address",
          "name": "to",
          "type": "address"
        },
        {
          "internalType": "uint256",
          "name": "value",
          "type": "uint256"
        }
      ],
      "name": "transferFrom",
      "outputs": [
        {
          "internalType": "bool",
          "name": "",
          "type": "bool"
        }
      ],
      "stateMutability": "nonpayable",
      "type": "function"
    },
    {
      "inputs": [
        {
          "internalType": "address",
          "name": "addr",
          "type": "address"
        }
      ],
      "name": "unfreeze",
      "outputs": [],
      "stateMutability": "nonpayable",
      "type": "function"
    },
    {
      "inputs": [],
      "name": "unpause",
      "outputs": [],
      "stateMutability": "nonpayable",
      "type": "function"
    },
    {
      "inputs": [
        {
          "internalType": "address",
          "name": "addr",
          "type": "address"
        }
      ],
      "name": "wipeFrozenAddress",
      "outputs": [],
      "stateMutability": "nonpayable",
      "type": "function"
    },
    {
      "inputs": [
        {
          "internalType": "address",
          "name": "initialAccount",
          "type": "address"
        },
        {
          "internalType": "uint256",
          "name": "initialBalance",
          "type": "uint256"
        }
      ],
      "name": "initializeBalance",
      "outputs": [],
      "stateMutability": "nonpayable",
      "type": "function"
    },
    {
      "inputs": [
        {
          "internalType": "address",
          "name": "to",
          "type": "address"
        },
        {
          "internalType": "uint256",
          "name": "desiredBalance",
          "type": "uint256"
        }
      ],
      "name": "topupBalance",
      "outputs": [],
      "stateMutability": "nonpayable",
      "type": "function"
    }
  ],
  "bytecode": "0x608060405234801561001057600080fd5b506120b3806100206000396000f3fe608060405234801561001057600080fd5b50600436106102065760003560e01c80635c975abb1161011a57806395d89b41116100ad578063b5ed298a1161007c578063b5ed298a146105d0578063d0516650146105f6578063d153b60c1461061c578063dd62ed3e14610624578063e2f72f031461065257610206565b806395d89b4114610553578063a0712d681461055b578063a457c2d714610578578063a9059cbb146105a457610206565b806382ac5a0d116100e957806382ac5a0d146104f75780638456cb591461051d5780638d1fdf2f146105255780638da5cb5b1461054b57610206565b80635c975abb1461049557806370a082311461049d57806379cc6790146104c35780638129fc1c146104ef57610206565b80633f4ba83a1161019d57806348facd4c1161016c57806348facd4c146104075780634d2f834d146104335780634e71e0c81461045f578063519dd1531461046757806355cc4e571461046f57610206565b80633f4ba83a1461039057806342966c6814610398578063449a52f8146103b557806345c8b1a6146103e157610206565b80631d143848116101d95780631d143848146102ec57806323b872dd14610310578063313ce56714610346578063395093511461036457610206565b806303acb4481461020b57806306fdde0314610215578063095ea7b31461029257806318160ddd146102d2575b600080fd5b610213610678565b005b61021d61077f565b6040805160208082528351818301528351919283929083019185019080838360005b8381101561025757818101518382015260200161023f565b50505050905090810190601f1680156102845780820380516001836020036101000a031916815260200191505b509250505060405180910390f35b6102be600480360360408110156102a857600080fd5b506001600160a01b0381351690602001356107a3565b604080519115158252519081900360200190f35b6102da610809565b60408051918252519081900360200190f35b6102f461080f565b604080516001600160a01b039092168252519081900360200190f35b6102be6004803603606081101561032657600080fd5b506001600160a01b0381358116916020810135909116906040013561081e565b61034e61094e565b6040805160ff9092168252519081900360200190f35b6102be6004803603604081101561037a57600080fd5b506001600160a01b038135169060200135610953565b610213610994565b6102be600480360360208110156103ae57600080fd5b5035610a69565b6102be600480360360408110156103cb57600080fd5b506001600160a01b038135169060200135610b2a565b610213600480360360208110156103f757600080fd5b50356001600160a01b0316610b83565b6102136004803603604081101561041d57600080fd5b506001600160a01b038135169060200135610c8d565b6102136004803603604081101561044957600080fd5b506001600160a01b038135169060200135610cae565b610213610d37565b6102f4610dea565b6102136004803603602081101561048557600080fd5b50356001600160a01b0316610df9565b6102be610ee5565b6102da600480360360208110156104b357600080fd5b50356001600160a01b0316610ef5565b6102be600480360360408110156104d957600080fd5b506001600160a01b038135169060200135610f10565b6102136110c9565b6102136004803603602081101561050d57600080fd5b50356001600160a01b03166111ad565b61021361127d565b6102136004803603602081101561053b57600080fd5b50356001600160a01b0316611357565b6102f461145e565b61021d61146d565b6102be6004803603602081101561057157600080fd5b503561148b565b6102be6004803603604081101561058e57600080fd5b506001600160a01b0381351690602001356114f0565b6102be600480360360408110156105ba57600080fd5b506001600160a01b03813516906020013561152c565b610213600480360360208110156105e657600080fd5b50356001600160a01b0316611589565b6102be6004803603602081101561060c57600080fd5b50356001600160a01b03166116ce565b6102f46116ec565b6102da6004803603604081101561063a57600080fd5b506001600160a01b03813581169160200135166116fb565b6102136004803603602081101561066857600080fd5b50356001600160a01b0316611726565b6005546001600160a01b031633148061069b57506004546001600160a01b031633145b6106ec576040805162461bcd60e51b815260206004820152601b60248201527f6f6e6c792070726f706f7365644f776e6572206f72206f776e65720000000000604482015290519081900360640190fd5b6005546001600160a01b03166107335760405162461bcd60e51b815260040180806020018281038252603b815260200180612043603b913960400191505060405180910390fd5b600580546001600160a01b031981169091556040516001600160a01b039091169081907f24f4590b0077912a4db89e7430de7986175c27bede1b47ee039e3b421c2e798e90600090a250565b60408051808201909152600a815269169e5d185c98481554d160b21b602082015290565b600554600090600160a01b900460ff16156107f5576040805162461bcd60e51b815260206004820152600d60248201526c1dda195b939bdd14185d5cd959609a1b604482015290519081900360640190fd5b61080033848461183a565b50600192915050565b60025490565b6008546001600160a01b031690565b600554600090600160a01b900460ff1615610870576040805162461bcd60e51b815260206004820152600d60248201526c1dda195b939bdd14185d5cd959609a1b604482015290519081900360640190fd5b6001600160a01b03841660009081526003602090815260408083203384529091529020548211156108e1576040805162461bcd60e51b8152602060048201526016602482015275696e73756666696369656e7420616c6c6f77616e636560501b604482015290519081900360640190fd5b6001600160a01b0384166000908152600360209081526040808320338452909152902054610915908363ffffffff61196516565b6001600160a01b03851660009081526003602090815260408083203384529091529020556109448484846119ae565b5060019392505050565b600690565b3360008181526003602090815260408083206001600160a01b0387168452909152812054909161080091859061098f908663ffffffff611ba916565b61183a565b6004546001600160a01b031633146109df576040805162461bcd60e51b815260206004820152600960248201526837b7363ca7bbb732b960b91b604482015290519081900360640190fd5b600554600160a01b900460ff16610a31576040805162461bcd60e51b8152602060048201526011602482015270185b1c9958591e481d5b97dc185d5cd959607a1b604482015290519081900360640190fd5b6005805460ff60a01b191690556040517f7805862f689e2f13df9f062ff482ad3ad112aca9e0847911ed832e158c525b3390600090a1565b3360009081526007602052604081205460ff1615610abf576040805162461bcd60e51b815260206004820152600e60248201526d30b2323932b9b990333937bd32b760911b604482015290519081900360640190fd5b33600090815260016020526040902054821115610b18576040805162461bcd60e51b8152602060048201526012602482015271696e73756666696369656e742066756e647360701b604482015290519081900360640190fd5b610b223383611c03565b506001919050565b6008546000906001600160a01b03163314610b79576040805162461bcd60e51b815260206004820152600a60248201526937b7363ca4b9b9bab2b960b11b604482015290519081900360640190fd5b6108008383611cd9565b6006546001600160a01b03163314610bd7576040805162461bcd60e51b81526020600482015260126024820152716f6e6c79436f6d706c69616e6365526f6c6560701b604482015290519081900360640190fd5b6001600160a01b03811660009081526007602052604090205460ff16610c44576040805162461bcd60e51b815260206004820152601860248201527f6164647265737320616c726561647920756e66726f7a656e0000000000000000604482015290519081900360640190fd5b6001600160a01b038116600081815260076020526040808220805460ff19169055517f150465b020dfc06a59269da94ed66db9b65a516cf4fdd5f583b0f12752339bbe9190a250565b6001600160a01b039091166000908152600160205260409020819055600255565b6001600160a01b038216600090815260016020526040902054811015610cd357610d33565b6001600160a01b038216600090815260016020526040812054610cfd90839063ffffffff61196516565b6001600160a01b0384166000908152600160205260409020839055600254909150610d2e908263ffffffff611ba916565b600255505b5050565b6005546001600160a01b03163314610d8a576040805162461bcd60e51b815260206004820152601160248201527037b7363ca83937b837b9b2b227bbb732b960791b604482015290519081900360640190fd5b60048054600580546001600160a01b03198084166001600160a01b038381169190911795869055911690915560405191811692169082907f8be0079c531659141344cd1fd0a4f28419497f9722a3daafe3b4186f6b6457e090600090a350565b6006546001600160a01b031690565b6004546001600160a01b03163314610e44576040805162461bcd60e51b815260206004820152600960248201526837b7363ca7bbb732b960b91b604482015290519081900360640190fd5b6001600160a01b038116610e895760405162461bcd60e51b8152600401808060200182810382526021815260200180611fcb6021913960400191505060405180910390fd5b6008546040516001600160a01b038084169216907ff7189b85d7899f5a32d733e6584c4f1dcdff0274f09d969d186c1797673ede1190600090a3600880546001600160a01b0319166001600160a01b0392909216919091179055565b600554600160a01b900460ff1690565b6001600160a01b031660009081526001602052604090205490565b6001600160a01b03821660009081526007602052604081205460ff16158015610f4957503360009081526007602052604090205460ff16155b610f8b576040805162461bcd60e51b815260206004820152600e60248201526d30b2323932b9b990333937bd32b760911b604482015290519081900360640190fd5b6001600160a01b038316600090815260016020526040902054821115610fed576040805162461bcd60e51b8152602060048201526012602482015271696e73756666696369656e742066756e647360701b604482015290519081900360640190fd5b6001600160a01b038316600090815260036020908152604080832033845290915290205482111561105e576040805162461bcd60e51b8152602060048201526016602482015275696e73756666696369656e7420616c6c6f77616e636560501b604482015290519081900360640190fd5b6110688383611c03565b6001600160a01b038316600090815260036020908152604080832033845290915290205461109c908363ffffffff61196516565b6001600160a01b038416600090815260036020908152604080832033845290915290205550600192915050565b600054610100900460ff16806110e257506110e2611f04565b806110f0575060005460ff16155b61112b5760405162461bcd60e51b815260040180806020018281038252602e815260200180611fec602e913960400191505060405180910390fd5b600054610100900460ff16158015611156576000805460ff1961ff0019909116610100171660011790555b60048054336001600160a01b031991821681179092556005805460068054841690556000600255600880549093169093179091556001600160a81b0319909116905580156111aa576000805461ff00191690555b50565b6006546001600160a01b03163314806111d057506004546001600160a01b031633145b611221576040805162461bcd60e51b815260206004820152601c60248201527f6f6e6c7920636f6d706c69616e6365526f6c65206f72204f776e657200000000604482015290519081900360640190fd5b6006546040516001600160a01b038084169216907f31b58ff3d01f61690b2faab8df1864d6eee3f4d17434dbcdb436136d8deb2d2f90600090a3600680546001600160a01b0319166001600160a01b0392909216919091179055565b6004546001600160a01b031633146112c8576040805162461bcd60e51b815260206004820152600960248201526837b7363ca7bbb732b960b91b604482015290519081900360640190fd5b600554600160a01b900460ff1615611319576040805162461bcd60e51b815260206004820152600f60248201526e185b1c9958591e4817dc185d5cd959608a1b604482015290519081900360640190fd5b6005805460ff60a01b1916600160a01b1790556040517f6985a02210a168e66602d3235cb6db0e70f92b3ba4d376a33c0f3d9434bff62590600090a1565b6006546001600160a01b031633146113ab576040805162461bcd60e51b81526020600482015260126024820152716f6e6c79436f6d706c69616e6365526f6c6560701b604482015290519081900360640190fd5b6001600160a01b03811660009081526007602052604090205460ff1615611412576040805162461bcd60e51b815260206004820152601660248201527530b2323932b9b99030b63932b0b23c90333937bd32b760511b604482015290519081900360640190fd5b6001600160a01b038116600081815260076020526040808220805460ff19166001179055517f1aa660498c83ea285bc55e4cfc00afcaa7120798db87b74f3c0d7c6e001bc3929190a250565b6004546001600160a01b031690565b604080518082019091526004815263169554d160e21b602082015290565b6008546000906001600160a01b031633146114da576040805162461bcd60e51b815260206004820152600a60248201526937b7363ca4b9b9bab2b960b11b604482015290519081900360640190fd5b600854610b22906001600160a01b031683611cd9565b3360008181526003602090815260408083206001600160a01b0387168452909152812054909161080091859061098f908663ffffffff61196516565b600554600090600160a01b900460ff161561157e576040805162461bcd60e51b815260206004820152600d60248201526c1dda195b939bdd14185d5cd959609a1b604482015290519081900360640190fd5b6108003384846119ae565b6004546001600160a01b031633146115d4576040805162461bcd60e51b815260206004820152600960248201526837b7363ca7bbb732b960b91b604482015290519081900360640190fd5b6001600160a01b0381166116195760405162461bcd60e51b8152600401808060200182810382526029815260200180611fa26029913960400191505060405180910390fd5b336001600160a01b0382161415611677576040805162461bcd60e51b815260206004820152601760248201527f63616c6c657220616c7265616479206973206f776e6572000000000000000000604482015290519081900360640190fd5b600580546001600160a01b0319166001600160a01b038381169190911791829055600454604051928216929116907ff4e75b79500ab730f8a026ed3cba6d55331bcb64c9e9f60c548e371356e5e3c090600090a350565b6001600160a01b031660009081526007602052604090205460ff1690565b6005546001600160a01b031690565b6001600160a01b03918216600090815260036020908152604080832093909416825291909152205490565b6006546001600160a01b0316331461177a576040805162461bcd60e51b81526020600482015260126024820152716f6e6c79436f6d706c69616e6365526f6c6560701b604482015290519081900360640190fd5b6001600160a01b03811660009081526007602052604090205460ff166117df576040805162461bcd60e51b815260206004820152601560248201527430b2323932b9b99034b9903737ba10333937bd32b760591b604482015290519081900360640190fd5b6001600160a01b0381166000908152600160205260409020546118028282611c03565b6040516001600160a01b038316907f71e13dfaf69fe3a65acef6b6eff085b0d60c7b3ebf229bda2e2fd3e8c5d1839690600090a25050565b6001600160a01b03831660009081526007602052604090205460ff1615801561187c57506001600160a01b03821660009081526007602052604090205460ff16155b6118be576040805162461bcd60e51b815260206004820152600e60248201526d30b2323932b9b990333937bd32b760911b604482015290519081900360640190fd5b6001600160a01b0382166119035760405162461bcd60e51b815260040180806020018281038252602981526020018061201a6029913960400191505060405180910390fd5b6001600160a01b03808416600081815260036020908152604080832094871680845294825291829020859055815185815291517f8c5be1e5ebec7d5bd14f71427d1e84f3dd0314c0f7b2291e5b200ac8c7c3b9259281900390910190a3505050565b60006119a783836040518060400160405280601e81526020017f536166654d6174683a207375627472616374696f6e206f766572666c6f770000815250611f0a565b9392505050565b6001600160a01b038216611a09576040805162461bcd60e51b815260206004820152601f60248201527f63616e6e6f74207472616e7366657220746f2061646472657373207a65726f00604482015290519081900360640190fd5b6001600160a01b03831660009081526007602052604090205460ff16158015611a4b57506001600160a01b03821660009081526007602052604090205460ff16155b611a8d576040805162461bcd60e51b815260206004820152600e60248201526d30b2323932b9b990333937bd32b760911b604482015290519081900360640190fd5b6001600160a01b038316600090815260016020526040902054811115611aef576040805162461bcd60e51b8152602060048201526012602482015271696e73756666696369656e742066756e647360701b604482015290519081900360640190fd5b6001600160a01b038316600090815260016020526040902054611b18908263ffffffff61196516565b6001600160a01b038085166000908152600160205260408082209390935590841681522054611b4d908263ffffffff611ba916565b6001600160a01b0380841660008181526001602090815260409182902094909455805185815290519193928716927fddf252ad1be2c89b69c2b068fc378daa952ba7f163c4a11628f55a4df523b3ef92918290030190a3505050565b6000828201838110156119a7576040805162461bcd60e51b815260206004820152601b60248201527f536166654d6174683a206164646974696f6e206f766572666c6f770000000000604482015290519081900360640190fd5b600254611c16908263ffffffff61196516565b6002556001600160a01b038216600090815260016020526040902054611c42908263ffffffff61196516565b6001600160a01b038316600081815260016020908152604091829020939093558051848152905191927fcc16f5dbb4873280815c1ee09dbd06736cffcc184412cf7a71a0fdb75d397ca592918290030190a26040805182815290516000916001600160a01b038516917fddf252ad1be2c89b69c2b068fc378daa952ba7f163c4a11628f55a4df523b3ef9181900360200190a35050565b6008546001600160a01b03163314611d25576040805162461bcd60e51b815260206004820152600a60248201526937b7363ca4b9b9bab2b960b11b604482015290519081900360640190fd5b600554600160a01b900460ff1615611d74576040805162461bcd60e51b815260206004820152600d60248201526c1dda195b939bdd14185d5cd959609a1b604482015290519081900360640190fd5b6001600160a01b038216611dcf576040805162461bcd60e51b815260206004820152601b60248201527f63616e6e6f74206d696e7420746f2061646472657373207a65726f0000000000604482015290519081900360640190fd5b6001600160a01b03821660009081526007602052604090205460ff1615611e2e576040805162461bcd60e51b815260206004820152600e60248201526d30b2323932b9b990333937bd32b760911b604482015290519081900360640190fd5b600254611e41908263ffffffff611ba916565b6002556001600160a01b038216600090815260016020526040902054611e6d908263ffffffff611ba916565b6001600160a01b038316600081815260016020908152604091829020939093558051848152905191927f0f6798a560793a54c3bcfe86a93cde1e73087d944c0ea20544137d412139688592918290030190a26040805182815290516001600160a01b038416916000917fddf252ad1be2c89b69c2b068fc378daa952ba7f163c4a11628f55a4df523b3ef9181900360200190a35050565b303b1590565b60008184841115611f995760405162461bcd60e51b81526004018080602001828103825283818151815260200191508051906020019080838360005b83811015611f5e578181015183820152602001611f46565b50505050905090810190601f168015611f8b5780820380516001836020036101000a031916815260200191505b509250505060405180910390fd5b50505090039056fe63616e6e6f74207472616e73666572206f776e65727368697020746f2061646472657373207a65726f63616e6e6f74207365742069737375657220746f2061646472657373207a65726f496e697469616c697a61626c653a20636f6e747261637420697320616c726561647920696e697469616c697a656463616e6e6f7420617070726f766520616c6c6f77616e636520666f72207a65726f206164647265737363616e206f6e6c792064697372656761726420612070726f706f736564206f776e65722074686174207761732070726576696f75736c7920736574a2646970667358221220c27978b262c9787dc7b05e304039f2713a1b0d199831a417839edaadbd1d3ae864736f6c63430006000033",
  "source": "pragma solidity 0.6.0;\n\nimport \"contracts/ZUSDImplementation.sol\";\n\ncontract ZUSDMock is ZUSDImplementation {\n    function initializeBalance(address initialAccount, uint256 initialBalance)\n        public\n    {\n        _balances[initialAccount] = initialBalance;\n        _totalSupply = initialBalance;\n    }\n\n    function topupBalance(address to, uint256 desiredBalance) public {\n        if (desiredBalance < _balances[to]) {\n            return;\n        }\n\n        uint256 toAdd = desiredBalance.sub(_balances[to]);\n        _balances[to] = desiredBalance;\n        _totalSupply = _totalSupply.add(toAdd);\n    }\n}\n",
  "sourcePath": "/Users/dazheng/workspace/token-contracts/zusd-ethereum/zusd-token/contracts/ZUSDMock.sol",
  "compiler": {
    "name": "solc",
    "version": "0.6.0+commit.26b70077.Emscripten.clang"
  },
  "schemaVersion": "3.3.2",
  "updatedAt": "2020-12-03T09:05:48.300Z",
  "devdoc": {
    "methods": {
      "allowance(address,address)": {
        "details": "Function to check the amount of tokens that an owner allowed to a spender.",
        "params": {
          "owner": "address The address which owns the funds.",
          "spender": "address The address which will spend the funds. Returns a uint256 specifying the amount of tokens still available for the spender."
        }
      },
      "approve(address,uint256)": {
        "details": "Approve the passed address to spend the specified amount of tokens on behalf of msg.sender. Beware that changing an allowance with this method brings the risk that someone may use both the old and the new allowance by unfortunate transaction ordering. One possible solution to mitigate this race condition is to first reduce the spender's allowance to 0 and set the desired value afterwards: https://github.com/ethereum/EIPs/issues/20#issuecomment-263524729",
        "params": {
          "spender": "The address which will spend the funds.",
          "value": "The amount of tokens to be spent."
        }
      },
      "balanceOf(address)": {
        "details": "Gets the balance of the specified address.",
        "params": {
          "addr": "The address to query the the balance of. Returns a uint256 representing the amount owned by the passed address."
        }
      },
      "burn(uint256)": {
        "details": "Decreases the total supply by burning the specified number of tokens.",
        "params": {
          "value": "The number of tokens to remove. Returns a boolean that indicates if the operation was successful."
        }
      },
      "burnFrom(address,uint256)": {
        "details": "Decreases the total supply by burning the specified number of tokens from the specified address.",
        "params": {
          "value": "The number of tokens to remove. Returns a boolean that indicates if the operation was successful."
        }
      },
      "claimOwnership()": {
        "details": "Allows the proposed owner to complete transferring control of the contract to the proposedOwner."
      },
      "complianceRole()": {
        "details": "Current compliance role"
      },
      "decreaseAllowance(address,uint256)": {
        "details": "Atomically decreases the allowance granted to `spender` by the caller.",
        "params": {
          "spender": "The address that will spend the tokens.",
          "subtractedValue": "The decrease in the number of tokens that can be spent.     * This mitigates the problem described in: https://github.com/ethereum/EIPs/issues/20#issuecomment-263524729"
        }
      },
      "disregardProposeOwner()": {
        "details": "Allows the current owner or proposed owner to cancel transferring control of the contract to a proposedOwner"
      },
      "freeze(address)": {
        "details": "Freezes an address balance from being transferred.",
        "params": {
          "addr": "The new address to freeze."
        }
      },
      "frozen(address)": {
        "details": "Gets the frozen status of the specified address.",
        "params": {
          "addr": "The address to query the the status of. Returns a bool representing whether the address is frozen."
        }
      },
      "increaseAllowance(address,uint256)": {
        "details": "Atomically increases the allowance granted to `spender` by the caller.",
        "params": {
          "addedValue": "The increase in the number of tokens that can be spent.     * This mitigates the problem described in: https://github.com/ethereum/EIPs/issues/20#issuecomment-263524729",
          "spender": "The address that will spend the tokens."
        }
      },
      "initialize()": {
        "details": "sets 0 initial tokens, the owner, and the issuer. this serves as the constructor for the proxy but compiles to the memory model of the Implementation contract."
      },
      "issuer()": {
        "details": "Current issuer"
      },
      "mint(uint256)": {
        "details": "Increases the total supply by minting the specified number of tokens to the issuer account.",
        "params": {
          "value": "The number of tokens to add. Returns a boolean that indicates if the operation was successful."
        }
      },
      "mintTo(address,uint256)": {
        "details": "Increases the total supply by minting the specified number of tokens to the specified account.",
        "params": {
          "value": "The number of tokens to add. Returns a boolean that indicates if the operation was successful."
        }
      },
      "owner()": {
        "details": "Current owner"
      },
      "pause()": {
        "details": "called by the owner to pause, triggers stopped state"
      },
      "paused()": {
        "details": "Pause status"
      },
      "proposeOwner(address)": {
        "details": "Allows the current owner to begin transferring control of the contract to a proposedOwner",
        "params": {
          "newProposedOwner": "The address to transfer ownership to."
        }
      },
      "proposedOwner()": {
        "details": "Proposed new owner"
      },
      "setComplianceRole(address)": {
        "details": "Sets a new compliance role address.",
        "params": {
          "newComplianceRole": "The new address allowed to freeze/unfreeze addresses and seize their tokens."
        }
      },
      "setIssuer(address)": {
        "details": "Sets a new issuer address.",
        "params": {
          "newIssuer": "The address allowed to mint tokens to control supply."
        }
      },
      "transfer(address,uint256)": {
        "details": "Transfer token to a specified address from msg.sender Note: the use of Safemath ensures that value is nonnegative.",
        "params": {
          "to": "The address to transfer to.",
          "value": "The amount to be transferred."
        }
      },
      "transferFrom(address,address,uint256)": {
        "details": "Transfer tokens from one address to another",
        "params": {
          "from": "address The address which you want to send tokens from",
          "to": "address The address which you want to transfer to",
          "value": "uint256 the amount of tokens to be transferred"
        }
      },
      "unfreeze(address)": {
        "details": "Unfreezes an address balance allowing transfer.",
        "params": {
          "addr": "The new address to unfreeze."
        }
      },
      "unpause()": {
        "details": "called by the owner to unpause, returns to normal state"
      },
      "wipeFrozenAddress(address)": {
        "details": "Wipes the balance of a frozen address, burning the tokens and setting the approval to zero.",
        "params": {
          "addr": "The new frozen address to wipe."
        }
      }
    }
  },
  "userdoc": {
    "methods": {}
  }
}