{
  "contractName": "ZUSDIssuer",
  "abi": [
    {
      "inputs": [
        {
          "internalType": "address",
          "name": "initialImplementation",
          "type": "address"
        },
        {
          "internalType": "uint256",
          "name": "initialMintWaitBlocks",
          "type": "uint256"
        }
      ],
      "stateMutability": "nonpayable",
      "type": "constructor"
    },
    {
      "anonymous": false,
      "inputs": [
        {
          "indexed": true,
          "internalType": "address",
          "name": "member",
          "type": "address"
        }
      ],
      "name": "AddMember",
      "type": "event"
    },
    {
      "anonymous": false,
      "inputs": [
        {
          "indexed": false,
          "internalType": "address",
          "name": "oldImplementation",
          "type": "address"
        },
        {
          "indexed": false,
          "internalType": "address",
          "name": "newImplementation",
          "type": "address"
        }
      ],
      "name": "ImplementationChange",
      "type": "event"
    },
    {
      "anonymous": false,
      "inputs": [
        {
          "indexed": true,
          "internalType": "address",
          "name": "proposer",
          "type": "address"
        },
        {
          "indexed": false,
          "internalType": "uint256",
          "name": "pendingMintsIndex",
          "type": "uint256"
        }
      ],
      "name": "MintProposed",
      "type": "event"
    },
    {
      "anonymous": false,
      "inputs": [
        {
          "indexed": true,
          "internalType": "address",
          "name": "sender",
          "type": "address"
        },
        {
          "indexed": false,
          "internalType": "uint256",
          "name": "pendingMintsIndex",
          "type": "uint256"
        }
      ],
      "name": "MintRejected",
      "type": "event"
    },
    {
      "anonymous": false,
      "inputs": [
        {
          "indexed": true,
          "internalType": "address",
          "name": "sender",
          "type": "address"
        },
        {
          "indexed": false,
          "internalType": "uint256",
          "name": "pendingMintsIndex",
          "type": "uint256"
        }
      ],
      "name": "MintSent",
      "type": "event"
    },
    {
      "anonymous": false,
      "inputs": [
        {
          "indexed": false,
          "internalType": "uint256",
          "name": "oldMintWaitBlocks",
          "type": "uint256"
        },
        {
          "indexed": false,
          "internalType": "uint256",
          "name": "newMintWaitBlocks",
          "type": "uint256"
        }
      ],
      "name": "MintWaitBlocksUpdated",
      "type": "event"
    },
    {
      "anonymous": false,
      "inputs": [
        {
          "indexed": true,
          "internalType": "address",
          "name": "oldProposedOwner",
          "type": "address"
        }
      ],
      "name": "OwnershipTransferDisregarded",
      "type": "event"
    },
    {
      "anonymous": false,
      "inputs": [
        {
          "indexed": true,
          "internalType": "address",
          "name": "currentOwner",
          "type": "address"
        },
        {
          "indexed": true,
          "internalType": "address",
          "name": "proposedOwner",
          "type": "address"
        }
      ],
      "name": "OwnershipTransferProposed",
      "type": "event"
    },
    {
      "anonymous": false,
      "inputs": [
        {
          "indexed": true,
          "internalType": "address",
          "name": "oldOwner",
          "type": "address"
        },
        {
          "indexed": true,
          "internalType": "address",
          "name": "newOwner",
          "type": "address"
        }
      ],
      "name": "OwnershipTransferred",
      "type": "event"
    },
    {
      "anonymous": false,
      "inputs": [
        {
          "indexed": true,
          "internalType": "address",
          "name": "member",
          "type": "address"
        }
      ],
      "name": "RemoveMember",
      "type": "event"
    },
    {
      "inputs": [],
      "name": "implementation",
      "outputs": [
        {
          "internalType": "contract ZUSDImplementation",
          "name": "",
          "type": "address"
        }
      ],
      "stateMutability": "view",
      "type": "function"
    },
    {
      "inputs": [],
      "name": "mintWaitBlocks",
      "outputs": [
        {
          "internalType": "uint256",
          "name": "",
          "type": "uint256"
        }
      ],
      "stateMutability": "view",
      "type": "function"
    },
    {
      "inputs": [],
      "name": "numMembers",
      "outputs": [
        {
          "internalType": "uint256",
          "name": "",
          "type": "uint256"
        }
      ],
      "stateMutability": "view",
      "type": "function"
    },
    {
      "inputs": [],
      "name": "owner",
      "outputs": [
        {
          "internalType": "address",
          "name": "",
          "type": "address"
        }
      ],
      "stateMutability": "view",
      "type": "function"
    },
    {
      "inputs": [
        {
          "internalType": "uint256",
          "name": "",
          "type": "uint256"
        }
      ],
      "name": "pendingMints",
      "outputs": [
        {
          "internalType": "address",
          "name": "recipient",
          "type": "address"
        },
        {
          "internalType": "uint256",
          "name": "value",
          "type": "uint256"
        },
        {
          "internalType": "uint256",
          "name": "canMintAtBlock",
          "type": "uint256"
        }
      ],
      "stateMutability": "view",
      "type": "function"
    },
    {
      "inputs": [],
      "name": "pendingMintsIndex",
      "outputs": [
        {
          "internalType": "uint256",
          "name": "",
          "type": "uint256"
        }
      ],
      "stateMutability": "view",
      "type": "function"
    },
    {
      "inputs": [],
      "name": "proposedOwner",
      "outputs": [
        {
          "internalType": "address",
          "name": "",
          "type": "address"
        }
      ],
      "stateMutability": "view",
      "type": "function"
    },
    {
      "inputs": [
        {
          "internalType": "address",
          "name": "implementationAddress",
          "type": "address"
        }
      ],
      "name": "setImplementation",
      "outputs": [],
      "stateMutability": "nonpayable",
      "type": "function"
    },
    {
      "inputs": [
        {
          "internalType": "address",
          "name": "addr",
          "type": "address"
        }
      ],
      "name": "isMember",
      "outputs": [
        {
          "internalType": "bool",
          "name": "",
          "type": "bool"
        }
      ],
      "stateMutability": "view",
      "type": "function"
    },
    {
      "inputs": [
        {
          "internalType": "address",
          "name": "addr",
          "type": "address"
        }
      ],
      "name": "addMember",
      "outputs": [],
      "stateMutability": "nonpayable",
      "type": "function"
    },
    {
      "inputs": [
        {
          "internalType": "address",
          "name": "addr",
          "type": "address"
        }
      ],
      "name": "removeMember",
      "outputs": [],
      "stateMutability": "nonpayable",
      "type": "function"
    },
    {
      "inputs": [
        {
          "internalType": "uint256",
          "name": "newMintWaitBlocks",
          "type": "uint256"
        }
      ],
      "name": "setMintWaitBlocks",
      "outputs": [
        {
          "internalType": "bool",
          "name": "",
          "type": "bool"
        }
      ],
      "stateMutability": "nonpayable",
      "type": "function"
    },
    {
      "inputs": [
        {
          "internalType": "address",
          "name": "to",
          "type": "address"
        },
        {
          "internalType": "uint256",
          "name": "value",
          "type": "uint256"
        }
      ],
      "name": "proposeMint",
      "outputs": [
        {
          "internalType": "uint256",
          "name": "",
          "type": "uint256"
        }
      ],
      "stateMutability": "nonpayable",
      "type": "function"
    },
    {
      "inputs": [
        {
          "internalType": "uint256",
          "name": "index",
          "type": "uint256"
        }
      ],
      "name": "sendMint",
      "outputs": [
        {
          "internalType": "bool",
          "name": "",
          "type": "bool"
        }
      ],
      "stateMutability": "nonpayable",
      "type": "function"
    },
    {
      "inputs": [
        {
          "internalType": "uint256",
          "name": "index",
          "type": "uint256"
        }
      ],
      "name": "rejectMint",
      "outputs": [
        {
          "internalType": "bool",
          "name": "",
          "type": "bool"
        }
      ],
      "stateMutability": "nonpayable",
      "type": "function"
    },
    {
      "inputs": [
        {
          "internalType": "address",
          "name": "newProposedOwner",
          "type": "address"
        }
      ],
      "name": "proposeOwner",
      "outputs": [],
      "stateMutability": "nonpayable",
      "type": "function"
    },
    {
      "inputs": [],
      "name": "disregardProposeOwner",
      "outputs": [],
      "stateMutability": "nonpayable",
      "type": "function"
    },
    {
      "inputs": [],
      "name": "claimOwnership",
      "outputs": [],
      "stateMutability": "nonpayable",
      "type": "function"
    }
  ],
  "bytecode": "0x608060405234801561001057600080fd5b506040516110ed3803806110ed8339818101604052604081101561003357600080fd5b508051602090910151600060028190556003919091556005819055600680546001600160a01b03199081163317909155600780548216905581546001600160a01b03909316921691909117905561105e8061008f6000396000f3fe608060405234801561001057600080fd5b50600436106101165760003560e01c80638e33623b116100a2578063ca6d56dc11610071578063ca6d56dc146102ac578063cc56821d146102d2578063d153b60c146102ef578063d784d426146102f7578063ddc904d01461031d57610116565b80638e33623b14610212578063a230c52414610243578063b5ed298a14610269578063c3c835d41461028f57610116565b80634698d110116100e95780634698d110146101915780634e71e0c8146101995780635c60da1b146101a157806363900ca6146101c55780638da5cb5b1461020a57610116565b806303acb4481461011b5780630b1ca49a1461012557806315d4c5d51461014b5780633b282dc514610189575b600080fd5b610123610325565b005b6101236004803603602081101561013b57600080fd5b50356001600160a01b031661042c565b6101776004803603604081101561016157600080fd5b506001600160a01b038135169060200135610548565b60408051918252519081900360200190f35b61017761064b565b610177610651565b610123610657565b6101a961070a565b604080516001600160a01b039092168252519081900360200190f35b6101e2600480360360208110156101db57600080fd5b5035610719565b604080516001600160a01b039094168452602084019290925282820152519081900360600190f35b6101a9610744565b61022f6004803603602081101561022857600080fd5b5035610753565b604080519115158252519081900360200190f35b61022f6004803603602081101561025957600080fd5b50356001600160a01b0316610928565b6101236004803603602081101561027f57600080fd5b50356001600160a01b0316610946565b61022f600480360360208110156102a557600080fd5b5035610a8b565b610123600480360360208110156102c257600080fd5b50356001600160a01b0316610b1f565b61022f600480360360208110156102e857600080fd5b5035610c3c565b6101a9610d57565b6101236004803603602081101561030d57600080fd5b50356001600160a01b0316610d66565b610177610e1b565b6007546001600160a01b031633148061034857506006546001600160a01b031633145b610399576040805162461bcd60e51b815260206004820152601b60248201527f6f6e6c792070726f706f7365644f776e6572206f72206f776e65720000000000604482015290519081900360640190fd5b6007546001600160a01b03166103e05760405162461bcd60e51b815260040180806020018281038252603b815260200180610fee603b913960400191505060405180910390fd5b600780546001600160a01b031981169091556040516001600160a01b039091169081907f24f4590b0077912a4db89e7430de7986175c27bede1b47ee039e3b421c2e798e90600090a250565b6006546001600160a01b03163314610477576040805162461bcd60e51b815260206004820152600960248201526837b7363ca7bbb732b960b91b604482015290519081900360640190fd5b6001600160a01b03811660009081526001602081905260409091205460ff161515146104d9576040805162461bcd60e51b815260206004820152600c60248201526b3737ba10309036b2b6b132b960a11b604482015290519081900360640190fd5b6001600160a01b0381166000908152600160208190526040909120805460ff1916905560025461050e9163ffffffff610e2116565b6002556040516001600160a01b038216907f7693a3e9eac51f172f145e6f54bc5554168997a1f4efb40f3fad091aa7cfb0e790600090a250565b3360009081526001602052604081205460ff16610599576040805162461bcd60e51b815260206004820152600a60248201526937b7363ca6b2b6b132b960b11b604482015290519081900360640190fd5b604080516060810182526001600160a01b0385811682526020808301868152600354430184860190815260058054600090815260048552879020955186546001600160a01b03191695169490941785559051600185015551600290930192909255548251908152915133927f26c331002c95570b5f1f5612efa7e6b6b63241e5722567f03898aa1facf9d81292908290030190a260055461064181600163ffffffff610e6a16565b6005559392505050565b60035481565b60025481565b6007546001600160a01b031633146106aa576040805162461bcd60e51b815260206004820152601160248201527037b7363ca83937b837b9b2b227bbb732b960791b604482015290519081900360640190fd5b60068054600780546001600160a01b03198084166001600160a01b038381169190911795869055911690915560405191811692169082907f8be0079c531659141344cd1fd0a4f28419497f9722a3daafe3b4186f6b6457e090600090a350565b6000546001600160a01b031681565b6004602052600090815260409020805460018201546002909201546001600160a01b03909116919083565b6006546001600160a01b031681565b3360009081526001602052604081205460ff166107a4576040805162461bcd60e51b815260206004820152600a60248201526937b7363ca6b2b6b132b960b11b604482015290519081900360640190fd5b6000828152600460205260409020600201544310156107f45760405162461bcd60e51b8152600401808060200182810382526034815260200180610f856034913960400191505060405180910390fd5b60008054838252600460208181526040808520805460019091015482516308934a5f60e31b81526001600160a01b03928316958101959095526024850152905193169263449a52f892604480820193929182900301818787803b15801561085a57600080fd5b505af115801561086e573d6000803e3d6000fd5b505050506040513d602081101561088457600080fd5b50519050806108c45760405162461bcd60e51b8152600401808060200182810382526035815260200180610fb96035913960400191505060405180910390fd5b60408051848152905133917fa89a82c544be9748056a09c6047fc397987b9826c67cd3053000ad63e930a671919081900360200190a2600083815260046020526040812080546001600160a01b031916815560018101829055600201559050919050565b6001600160a01b031660009081526001602052604090205460ff1690565b6006546001600160a01b03163314610991576040805162461bcd60e51b815260206004820152600960248201526837b7363ca7bbb732b960b91b604482015290519081900360640190fd5b6001600160a01b0381166109d65760405162461bcd60e51b8152600401808060200182810382526029815260200180610f5c6029913960400191505060405180910390fd5b336001600160a01b0382161415610a34576040805162461bcd60e51b815260206004820152601760248201527f63616c6c657220616c7265616479206973206f776e6572000000000000000000604482015290519081900360640190fd5b600780546001600160a01b0319166001600160a01b038381169190911791829055600654604051928216929116907ff4e75b79500ab730f8a026ed3cba6d55331bcb64c9e9f60c548e371356e5e3c090600090a350565b6006546000906001600160a01b03163314610ad9576040805162461bcd60e51b815260206004820152600960248201526837b7363ca7bbb732b960b91b604482015290519081900360640190fd5b600354604080519182526020820184905280517f2a9d402f5d2923f14620e64d88d8fec68475d0677506fa65af79fef6e997a5749281900390910190a150600355600190565b6006546001600160a01b03163314610b6a576040805162461bcd60e51b815260206004820152600960248201526837b7363ca7bbb732b960b91b604482015290519081900360640190fd5b6001600160a01b03811660009081526001602052604090205460ff1615610bcb576040805162461bcd60e51b815260206004820152601060248201526f30b63932b0b23c90309036b2b6b132b960811b604482015290519081900360640190fd5b6001600160a01b0381166000908152600160208190526040909120805460ff191682179055600254610c029163ffffffff610e6a16565b6002556040516001600160a01b038216907f1a2323d99020f3db8e6ea85b1eea81e5bf422695877228e3d8a0241d7e957a6c90600090a250565b3360009081526001602052604081205460ff16610c8d576040805162461bcd60e51b815260206004820152600a60248201526937b7363ca6b2b6b132b960b11b604482015290519081900360640190fd5b600082815260046020526040902060010154610cf0576040805162461bcd60e51b815260206004820181905260248201527f746869732070656e64696e67206d696e7420646f6573206e6f74206578697374604482015290519081900360640190fd5b60408051838152905133917f361c66116259e03fa0d680ae38e764a0f21907b886c8bffc80ef7669a92610ce919081900360200190a250600090815260046020526040812080546001600160a01b0319168155600180820183905560029091019190915590565b6007546001600160a01b031681565b6006546001600160a01b03163314610db1576040805162461bcd60e51b815260206004820152600960248201526837b7363ca7bbb732b960b91b604482015290519081900360640190fd5b600054604080516001600160a01b039283168152918316602083015280517ffe2636bea9a0d9b9efed1e73a09b8e52e54d06f17d04742f613578287b8e361b9281900390910190a1600080546001600160a01b0319166001600160a01b0392909216919091179055565b60055481565b6000610e6383836040518060400160405280601e81526020017f536166654d6174683a207375627472616374696f6e206f766572666c6f770000815250610ec4565b9392505050565b600082820183811015610e63576040805162461bcd60e51b815260206004820152601b60248201527f536166654d6174683a206164646974696f6e206f766572666c6f770000000000604482015290519081900360640190fd5b60008184841115610f535760405162461bcd60e51b81526004018080602001828103825283818151815260200191508051906020019080838360005b83811015610f18578181015183820152602001610f00565b50505050905090810190601f168015610f455780820380516001836020036101000a031916815260200191505b509250505060405180910390fd5b50505090039056fe63616e6e6f74207472616e73666572206f776e65727368697020746f2061646472657373207a65726f63616e6e6f742073656e64206d696e7420756e74696c2073756666696369656e7420626c6f636b7320686176652070617373656473656e64696e672070726f706f736564206d696e7420676f74206661696c7572652066726f6d20696d706c656d656e746174696f6e63616e206f6e6c792064697372656761726420612070726f706f736564206f776e65722074686174207761732070726576696f75736c7920736574a26469706673582212202031f2e7e74810554e1fb53e193b70246025ed5bbaa7b658c0caf0241078dddd64736f6c63430006000033",
  "source": "pragma solidity 0.6.0;\n\nimport \"@openzeppelin/contracts/math/SafeMath.sol\";\nimport \"../contracts/ZUSDImplementation.sol\"; // Workaround Truffle duplicate artifacts different paths issues\n\n/**\n * @title ZUSDIssuer\n * @dev This contract will be the issuer for ZUSD. It provides a check and balance on\n * token issuance by requiring mints to be first proposed and a certain number of blocks\n * to have passed before it can be executed. This gives other issuers a time to check\n * that the issuance is valid and if not, reject the mint.\n */\ncontract ZUSDIssuer {\n    using SafeMath for uint256;\n\n    // IMPLEMENTATION\n    ZUSDImplementation public implementation;\n    event ImplementationChange(\n        address oldImplementation,\n        address newImplementation\n    );\n\n    // MEMBERSHIP DATA\n    mapping(address => bool) internal _members;\n    uint256 public numMembers;\n    event AddMember(address indexed member);\n    event RemoveMember(address indexed member);\n\n    // WAIT TIME\n    uint256 public mintWaitBlocks;\n    event MintWaitBlocksUpdated(\n        uint256 oldMintWaitBlocks,\n        uint256 newMintWaitBlocks\n    );\n\n    // PENDING TXS\n    struct PendingMint {\n        address recipient;\n        uint256 value;\n        uint256 canMintAtBlock;\n    }\n    // NOTE: pendingMints is public and will generate a getter automatically\n    // Current solidity version does not support returning structs so we fall back to this\n    mapping(uint256 => PendingMint) public pendingMints;\n    uint256 public pendingMintsIndex;\n    event MintProposed(address indexed proposer, uint256 pendingMintsIndex);\n    event MintSent(address indexed sender, uint256 pendingMintsIndex);\n    event MintRejected(address indexed sender, uint256 pendingMintsIndex);\n\n    // OWNER\n    address public owner;\n    address public proposedOwner;\n    event OwnershipTransferProposed(\n        address indexed currentOwner,\n        address indexed proposedOwner\n    );\n    event OwnershipTransferDisregarded(address indexed oldProposedOwner);\n    event OwnershipTransferred(\n        address indexed oldOwner,\n        address indexed newOwner\n    );\n\n    // CONSTRUCTOR\n\n    constructor(address initialImplementation, uint256 initialMintWaitBlocks)\n        public\n    {\n        numMembers = 0;\n        mintWaitBlocks = initialMintWaitBlocks;\n        pendingMintsIndex = 0;\n        owner = msg.sender;\n        proposedOwner = address(0);\n        implementation = ZUSDImplementation(initialImplementation);\n    }\n\n    // IMPLEMENTATION LOGIC\n\n    /**\n     * @dev Sets the implementation contract address.\n     * @param implementationAddress The address of the implementation to point to.\n     */\n    function setImplementation(address implementationAddress)\n        external\n        onlyOwner\n    {\n        emit ImplementationChange(\n            address(implementation),\n            implementationAddress\n        );\n        implementation = ZUSDImplementation(implementationAddress);\n    }\n\n    // MEMBERSHIP LOGIC\n\n    /**\n     * @dev Throws if called by any account other than the owner.\n     */\n    modifier onlyMember() {\n        require(_members[msg.sender], \"onlyMember\");\n        _;\n    }\n\n    /**\n     * @return Whether the address is a member.\n     */\n    function isMember(address addr) external view returns (bool) {\n        return _members[addr];\n    }\n\n    /**\n     * @dev Adds a new member.\n     * @param addr The address to add.\n     */\n    function addMember(address addr) external onlyOwner {\n        require(_members[addr] == false, \"already a member\");\n        _members[addr] = true;\n        numMembers = numMembers.add(1);\n\n        emit AddMember(addr);\n    }\n\n    /**\n     * @dev Removes an existing member.\n     * @param addr The address to remove.\n     */\n    function removeMember(address addr) external onlyOwner {\n        require(_members[addr] == true, \"not a member\");\n        _members[addr] = false;\n        numMembers = numMembers.sub(1);\n        emit RemoveMember(addr);\n    }\n\n    // WAIT TIME\n\n    function setMintWaitBlocks(uint256 newMintWaitBlocks)\n        external\n        onlyOwner\n        returns (bool)\n    {\n        emit MintWaitBlocksUpdated(mintWaitBlocks, newMintWaitBlocks);\n        mintWaitBlocks = newMintWaitBlocks;\n\n        return true;\n    }\n\n    // MINT FUNCTIONALITY\n\n    /**\n     * @dev Creates a mint proposal that must wait mintWaitBlocks blocks before it can be executed.\n     * Note that mintWaitBlocks can be zero to allow for no-wait mints.\n     * @param to The recipient of the minted tokens.\n     * @param value The number of tokens to mint.\n     * Returns a uint256 that represents the index of the mint proposal.\n     */\n    function proposeMint(address to, uint256 value)\n        external\n        onlyMember\n        returns (uint256)\n    {\n        pendingMints[pendingMintsIndex] = PendingMint(\n            to,\n            value,\n            block.number + mintWaitBlocks\n        );\n        emit MintProposed(msg.sender, pendingMintsIndex);\n        uint256 proposedIndex = pendingMintsIndex;\n        pendingMintsIndex = pendingMintsIndex.add(1);\n\n        return proposedIndex;\n    }\n\n    /**\n     * @dev Executes a mint proposal that has waited sufficient blocks.\n     * @param index The index of the _pendingMints to execute.\n     * Returns a boolean that indicates if the operation was successful.\n     */\n    function sendMint(uint256 index) external onlyMember returns (bool) {\n        require(\n            block.number >= pendingMints[index].canMintAtBlock,\n            \"cannot send mint until sufficient blocks have passed\"\n        );\n\n        bool success = implementation.mintTo(\n            pendingMints[index].recipient,\n            pendingMints[index].value\n        );\n        require(\n            success,\n            \"sending proposed mint got failure from implementation\"\n        );\n        emit MintSent(msg.sender, index);\n        delete pendingMints[index];\n\n        return success;\n    }\n\n    /**\n     * @dev Deletes the mint proposal, can be called by any issuer on any mint proposal, provides a check\n     * and balance on token minting.\n     * @param index The index of the _pendingMints to delete.\n     * Returns a boolean that indicates if the operation was successful.\n     */\n    function rejectMint(uint256 index) external onlyMember returns (bool) {\n        require(\n            pendingMints[index].value > 0,\n            \"this pending mint does not exist\"\n        );\n\n        emit MintRejected(msg.sender, index);\n        delete pendingMints[index];\n\n        return true;\n    }\n\n    // OWNER FUNCTIONALITY\n\n    /**\n     * @dev Throws if called by any account other than the owner.\n     */\n    modifier onlyOwner() {\n        require(msg.sender == owner, \"onlyOwner\");\n        _;\n    }\n\n    /**\n     * @dev Allows the current owner to begin transferring control of the contract to a proposedOwner\n     * @param newProposedOwner The address to transfer ownership to.\n     */\n    function proposeOwner(address newProposedOwner) external onlyOwner {\n        require(\n            newProposedOwner != address(0),\n            \"cannot transfer ownership to address zero\"\n        );\n        require(msg.sender != newProposedOwner, \"caller already is owner\");\n\n        proposedOwner = newProposedOwner;\n        emit OwnershipTransferProposed(owner, proposedOwner);\n    }\n\n    /**\n     * @dev Allows the current owner or proposed owner to cancel transferring control of the contract to a proposedOwner\n     */\n    function disregardProposeOwner() external {\n        require(\n            msg.sender == proposedOwner || msg.sender == owner,\n            \"only proposedOwner or owner\"\n        );\n        require(\n            proposedOwner != address(0),\n            \"can only disregard a proposed owner that was previously set\"\n        );\n\n        address oldProposedOwner = proposedOwner;\n        proposedOwner = address(0);\n        emit OwnershipTransferDisregarded(oldProposedOwner);\n    }\n\n    /**\n     * @dev Allows the proposed owner to complete transferring control of the contract to the proposedOwner.\n     */\n    function claimOwnership() external {\n        require(msg.sender == proposedOwner, \"onlyProposedOwner\");\n\n        address oldOwner = owner;\n        owner = proposedOwner;\n        proposedOwner = address(0);\n        emit OwnershipTransferred(oldOwner, owner);\n    }\n}\n",
  "sourcePath": "/Users/dazheng/workspace/token-contracts/zusd-ethereum/token/contracts/ZUSDIssuer.sol",
  "compiler": {
    "name": "solc",
    "version": "0.6.0+commit.26b70077.Emscripten.clang"
  },
  "schemaVersion": "3.3.3",
  "updatedAt": "2020-12-22T16:04:21.766Z",
  "devdoc": {
    "details": "This contract will be the issuer for ZUSD. It provides a check and balance on token issuance by requiring mints to be first proposed and a certain number of blocks to have passed before it can be executed. This gives other issuers a time to check that the issuance is valid and if not, reject the mint.",
    "methods": {
      "addMember(address)": {
        "details": "Adds a new member.",
        "params": {
          "addr": "The address to add."
        }
      },
      "claimOwnership()": {
        "details": "Allows the proposed owner to complete transferring control of the contract to the proposedOwner."
      },
      "disregardProposeOwner()": {
        "details": "Allows the current owner or proposed owner to cancel transferring control of the contract to a proposedOwner"
      },
      "proposeMint(address,uint256)": {
        "details": "Creates a mint proposal that must wait mintWaitBlocks blocks before it can be executed. Note that mintWaitBlocks can be zero to allow for no-wait mints.",
        "params": {
          "to": "The recipient of the minted tokens.",
          "value": "The number of tokens to mint. Returns a uint256 that represents the index of the mint proposal."
        }
      },
      "proposeOwner(address)": {
        "details": "Allows the current owner to begin transferring control of the contract to a proposedOwner",
        "params": {
          "newProposedOwner": "The address to transfer ownership to."
        }
      },
      "rejectMint(uint256)": {
        "details": "Deletes the mint proposal, can be called by any issuer on any mint proposal, provides a check and balance on token minting.",
        "params": {
          "index": "The index of the _pendingMints to delete. Returns a boolean that indicates if the operation was successful."
        }
      },
      "removeMember(address)": {
        "details": "Removes an existing member.",
        "params": {
          "addr": "The address to remove."
        }
      },
      "sendMint(uint256)": {
        "details": "Executes a mint proposal that has waited sufficient blocks.",
        "params": {
          "index": "The index of the _pendingMints to execute. Returns a boolean that indicates if the operation was successful."
        }
      },
      "setImplementation(address)": {
        "details": "Sets the implementation contract address.",
        "params": {
          "implementationAddress": "The address of the implementation to point to."
        }
      }
    },
    "title": "ZUSDIssuer"
  },
  "userdoc": {
    "methods": {}
  }
}